:100000000C9446000C9465000C9465000C946500FB
:100010000C9465000C9465000C9465000C946500CC
:100020000C9465000C9465000C9465000C946500BC
:100030000C9465000C940B010C9465000C94650005
:100040000C9465000C9465000C9465000C9465009C
:100050000C9465000C9465000C9465000C9465008C
:100060000C9465000C9465000C9465000C9465007C
:100070000C9465000C9465000C9465000C9465006C
:100080000C9465000C9465000C94650011241FBE4F
:10009000CFEFD0E4DEBFCDBF11E0A0E0B1E0ECEFE8
:1000A000F8E000E00BBF02C007900D92A430B1074A
:1000B000D9F711E0A4E0B1E001C01D92A532B1076B
:1000C000E1F70E94C1020C947C040C94000040E013
:1000D00050E00CC000002F5F3F4F02C020E030E036
:1000E000273063E03607B4F34F5F5F4F4817590777
:1000F000ACF308955E9888B95F9A00005F9882E03B
:1001000090E00E946700089581E00E947A000895BF
:10011000813120F481580E947A00089581550E940F
:100120007A00089584E690E00E94670088E30E94C8
:100130007A0086E00E947A008FE00E947A0081E0D7
:100140000E947A008AE090E00E94670008955E9A1B
:1001500088B95F9A00005F9881E090E00E94670094
:100160000895EF92FF920F931F93CF93DF93182F71
:10017000EB010E9484000EC001E0010F812F0E945C
:1001800088007E018FEFE81AF80A88810E94A70094
:10019000102FE70188818111EFCFDF91CF911F915F
:1001A0000F91FF90EF90089521E030E002C0220F00
:1001B000331F6A95E2F7282381E009F480E008956F
:1001C0008BE0809381008DE790E09093890080938D
:1001D000880082E080936F00109285001092840066
:1001E0008091000190910101A0910201B091030161
:1001F0008093060190930701A0930801B093090131
:100200008FB780688FBF089510928100089581E0B4
:1002100080930A0108951F920F920FB60F92112436
:100220000BB60F922F933F934F935F936F937F93F0
:100230008F939F93AF93BF93EF93FF9380910601AA
:1002400090910701A0910801B09109010197A109BE
:10025000B1098093060190930701A0930801B09320
:100260000901892B8A2B8B2B91F40E940701809125
:10027000000190910101A0910201B09103018093CE
:10028000060190930701A0930801B0930901FF9123
:10029000EF91BF91AF919F918F917F916F915F91FE
:1002A0004F913F912F910F900BBE0F900FBE0F906B
:1002B0001F901895609300017093010180930201D3
:1002C00090930301609306017093070180930801E6
:1002D000909309010895EAE7F0E08081806E8083C1
:1002E0000895CF92DF92EF92FF926B017C012091F3
:1002F00021013091220140912301509124010E945B
:100300000303882309F458C020E030E0A901C701A5
:10031000B6010E940303811106C0E1E9F0E080818B
:100320008870808305C0E1E9F0E08081836080838C
:1003300028E539E344E75FE3C701B6010E94030300
:1003400088233CF48FEF9FEF90939900809398005F
:1003500027C020E034E244EF56E4C701B6010E9412
:10036000150418162CF4109299001092980018C0D9
:1003700020E030E040E053E4C701B6010E941904D8
:100380009B01AC0160E074E284EF9AE40E940703F1
:100390000E946F03615071097093990060939800F7
:1003A0001092950010929400C0922101D0922201E7
:1003B000E0922301F0922401FF90EF90DF90CF9024
:1003C000089580E4809390008BE08093910060E03A
:1003D00070E0CB010E94710108951092900010927C
:1003E000910008958FEE82B9000080B160E00E9414
:1003F000D400882309F46DC080B161E00E94D4006C
:10040000882309F468C080B162E00E94D400882388
:1004100009F463C080B163E00E94D400882309F42A
:100420005EC08FED82B9000080B160E00E94D40010
:10043000882309F456C080B161E00E94D40088236B
:1004400009F451C080B162E00E94D400882309F40D
:100450004CC080B163E00E94D400882309F447C0F7
:100460008FEB82B9000080B160E00E94D400882345
:1004700009F43FC080B161E00E94D4008823D9F123
:1004800080B162E00E94D4008823B9F180B163E0BA
:100490000E94D400882399F18FE782B9000080B1CF
:1004A00060E00E94D400882361F180B161E00E9485
:1004B000D400882341F180B162E00E94D4008823F7
:1004C00021F180B163E00E94D400811120C084E456
:1004D000089581E3089584E3089587E308958AE207
:1004E000089582E3089585E3089588E3089580E3FD
:1004F000089583E3089586E3089589E3089583E2E8
:10050000089581E4089582E4089583E4089580E0E5
:1005100008952091050120930401009721F0813076
:10052000910561F0089541E050E02F3111F040E075
:1005300050E030E04217530741F408950E94F20161
:100540008093050180E090E0089581E090E00895B7
:100550000F931F93CF93DF938C010E94F201C82F5A
:10056000D0E00115110539F4209729F00E9484008C
:10057000CE010E94A700C801DF91CF911F910F917A
:10058000089514B88FEF85B987B918B88AB91BB820
:10059000E6E1F1E010828EE190E0A0E0B0E081833E
:1005A0009283A383B48385839683A783B08789E8E6
:1005B00092E092878187EBE0F1E0108282E390E0A5
:1005C000A0E0B0E081839283A383B4838583968384
:1005D000A783B08788EA92E0928781876AE070E01B
:1005E00080E090E00E945A010E94E0000E94920088
:1005F0008EEE88B98EE78BB980910A018823E1F3EA
:1006000010920A01F5CF9CD008F481E008950CD037
:10061000D2C0CAD040F0C1D030F021F45F3F19F011
:10062000B3C05111FCC0B6C0D7D098F39923C9F319
:100630005523B1F3951B550BBB27AA2762177307E8
:10064000840738F09F5F5F4F220F331F441FAA1F9C
:10065000A9F333D00E2E3AF0E0E830D0915050405C
:10066000E695001CCAF729D0FE2F27D0660F771F0A
:10067000881FBB1F261737074807AB07B0E809F0EC
:10068000BB0B802DBF01FF2793585F4F2AF09E3F81
:10069000510568F079C0C3C05F3FECF3983EDCF3CE
:1006A000869577956795B795F7959F5FC9F7880FFA
:1006B000911D9695879597F90895E1E0660F771F4C
:1006C000881FBB1F621773078407BA0720F0621BDD
:1006D000730B840BBA0BEE1F88F7E095089504D0D6
:1006E0006894B1119CC008957FD088F09F5790F016
:1006F000B92F9927B751A0F0D1F0660F771F881F47
:10070000991F1AF0BA95C9F712C0B13081F086D09E
:10071000B1E0089583C0672F782F8827B85F39F03C
:10072000B93FCCF3869577956795B395D9F73EF4A5
:1007300090958095709561957F4F8F4F9F4F08954D
:10074000990F0008550FAA0BE0E8FEEF16161706E2
:10075000E807F907C0F012161306E407F50798F04A
:10076000621B730B840B950B39F40A2661F0232B63
:10077000242B252B21F408950A2609F4A140A695DF
:100780008FEF811D811D089597F99F6780E870E0C4
:1007900060E008959FEF80EC089500240A941616F7
:1007A000170618060906089500240A94121613065F
:1007B000140605060895092E0394000C11F48823ED
:1007C00052F0BB0F40F4BF2B11F460FF04C06F5F09
:1007D0007F4F8F4F9F4F089557FD9058440F551FDF
:1007E00059F05F3F71F04795880F97FB991F61F0B3
:1007F0009F3F79F087950895121613061406551F2A
:10080000F2CF4695F1DF08C0161617061806991F95
:10081000F1CF86957105610508940895E894BB278A
:1008200066277727CB0197F908958ADF08F48FEFC1
:1008300008950BD0C0CFB1DF28F0B6DF18F09523B4
:1008400009F0A2CFA7CF1124EACFC6DFA0F3959F6E
:10085000D1F3950F50E0551F629FF001729FBB27A7
:10086000F00DB11D639FAA27F00DB11DAA1F649F53
:100870006627B00DA11D661F829F2227B00DA11D06
:10088000621F739FB00DA11D621F839FA00D611D8C
:10089000221F749F3327A00D611D231F849F600DAD
:1008A000211D822F762F6A2F11249F5750408AF0E6
:1008B000E1F088234AF0EE0FFF1FBB1F661F771F72
:1008C000881F91505040A9F79E3F510570F05CCFB2
:1008D000A6CF5F3FECF3983EDCF38695779567955E
:1008E000B795F795E7959F5FC1F7FE2B880F911D90
:0C08F0009695879597F90895F894FFCF2E
:0408FC0001000000F7
:00000001FF
