:100000000C9446000C9465000C9465000C946500FB
:100010000C9465000C9465000C9465000C946500CC
:100020000C9465000C9465000C9465000C946500BC
:100030000C9465000C940C010C9465000C94650004
:100040000C9465000C9465000C9465000C9465009C
:100050000C9465000C9465000C9465000C9465008C
:100060000C9465000C9465000C9465000C9465007C
:100070000C9465000C9465000C9465000C9465006C
:100080000C9465000C9465000C94650011241FBE4F
:10009000CFEFD0E4DEBFCDBF11E0A0E0B1E0E8E6F5
:1000A000F8E000E00BBF02C007900D92A031B1074D
:1000B000D9F711E0A0E1B1E001C01D92A632B1076D
:1000C000E1F70E948A020C9432040C94000040E094
:1000D00050E00CC000002F5F3F4F02C020E030E036
:1000E000273063E03607B4F34F5F5F4F4817590777
:1000F000ACF308955E9888B95F9A00005F9882E03B
:1001000090E00E946700089581E00E947A000895BF
:10011000813120F481580E947A00089581550E940F
:100120007A00089584E690E00E94670088E30E94C8
:100130007A0086E00E947A008FE00E947A0081E0D7
:100140000E947A008AE090E00E94670008955E9A1B
:1001500088B95F9A00005F9881E090E00E94670094
:100160000895EF92FF920F931F93CF93DF93182F71
:10017000EB010E9484000EC001E0010F812F0E945C
:1001800088007E018FEFE81AF80A88810E94A70094
:10019000102FE70188818111EFCFDF91CF911F915F
:1001A0000F91FF90EF900895089521E030E002C094
:1001B000220F331F6A95E2F7282381E009F480E0DB
:1001C00008958BE0809381008DE790E09093890003
:1001D0008093880082E080936F00109285001092D7
:1001E000840080910C0190910D01A0910E01B091BD
:1001F0000F018093120190931301A0931401B09307
:1002000015018FB780688FBF0895109281000895FF
:1002100081E08093160108951F920F920FB60F92FE
:1002200011240BB60F922F933F934F935F936F93CD
:100230007F938F939F93AF93BF93EF93FF9380919F
:10024000120190911301A0911401B0911501019731
:10025000A109B1098093120190931301A093140195
:10026000B0931501892B8A2B8B2B91F40E940801E6
:1002700080910C0190910D01A0910E01B0910F01A0
:100280008093120190931301A0931401B093150170
:10029000FF91EF91BF91AF919F918F917F916F915E
:1002A0005F914F913F912F910F900BBE0F900FBE1A
:1002B0000F901F90189560930C0170930D0180931F
:1002C0000E0190930F0160931201709313018093BC
:1002D0001401909315010895EAE7F0E08081806EA3
:1002E00080830895CF92DF92EF92FF926B017C01A1
:1002F0002091220130912301409124015091250148
:100300000E94B902882309F458C020E030E0A90116
:10031000C701B6010E94B902811106C0E1E9F0E00F
:1003200080818870808305C0E1E9F0E0808183608E
:10033000808328E539E344E75FE3C701B6010E9403
:10034000B90288233CF48FEF9FEF9093990080933C
:10035000980027C020E034E244EF56E4C701B6011C
:100360000E94CB0318162CF410929900109298005A
:1003700018C020E030E040E053E4C701B6010E941D
:10038000CF039B01AC0160E074E284EF9AE40E9429
:10039000BD020E942503615071097093990060931A
:1003A00098001092950010929400C0922201D09271
:1003B0002301E0922401F0922501FF90EF90DF905D
:1003C000CF90089580E4809390008BE0809391001B
:1003D00060E070E0CB010E947201089510929000DD
:1003E0001092910008958FEE82B9000080B160E014
:1003F0000E94D500882309F46DC080B161E00E949D
:10040000D500882309F468C080B162E00E94D5005D
:10041000882309F463C080B163E00E94D50088237B
:1004200009F45EC08FED82B9000080B160E00E94E7
:10043000D500882309F456C080B161E00E94D50040
:10044000882309F451C080B162E00E94D50088235E
:1004500009F44CC080B163E00E94D500882309F400
:1004600047C08FEB82B9000080B160E00E94D500E8
:10047000882309F43FC080B161E00E94D500882341
:10048000D9F180B162E00E94D5008823B9F180B132
:1004900063E00E94D500882399F18FE782B90000BC
:1004A00080B160E00E94D500882361F180B161E0F5
:1004B0000E94D500882341F180B162E00E94D500FE
:1004C000882321F180B163E00E94D500811120C012
:1004D00084E4089581E3089584E3089587E308950B
:1004E0008AE2089582E3089585E3089588E30895F4
:1004F00080E3089583E3089586E3089589E30895EA
:1005000083E2089581E4089582E4089583E40895E0
:1005100080E0089514B88FEF85B987B918B88AB903
:100520001BB8E7E1F1E010828EE190E0A0E0B0E0DE
:1005300081839283A383B48385839683A783B087C3
:1005400084ED90E0928781876AE070E080E090E03F
:100550000E945B010E94E1000E9492008EEF88B928
:100560008EE78BB9809116018823E1F31092160172
:10057000F5CF9CD008F481E008950CD0D2C0CAD049
:1005800040F0C1D030F021F45F3F19F0B3C05111F9
:10059000FCC0B6C0D7D098F39923C9F35523B1F363
:1005A000951B550BBB27AA2762177307840738F0E2
:1005B0009F5F5F4F220F331F441FAA1FA9F333D041
:1005C0000E2E3AF0E0E830D091505040E695001CF5
:1005D000CAF729D0FE2F27D0660F771F881FBB1FB1
:1005E000261737074807AB07B0E809F0BB0B802D8B
:1005F000BF01FF2793585F4F2AF09E3F510568F0D7
:1006000079C0C3C05F3FECF3983EDCF386957795E5
:100610006795B795F7959F5FC9F7880F911D9695D8
:10062000879597F90895E1E0660F771F881FBB1F34
:10063000621773078407BA0720F0621B730B840BE1
:10064000BA0BEE1F88F7E095089504D06894B111B5
:100650009CC008957FD088F09F5790F0B92F9927BC
:10066000B751A0F0D1F0660F771F881F991F1AF0BD
:10067000BA95C9F712C0B13081F086D0B1E00895C3
:1006800083C0672F782F8827B85F39F0B93FCCF344
:10069000869577956795B395D9F73EF490958095B3
:1006A000709561957F4F8F4F9F4F0895990F000868
:1006B000550FAA0BE0E8FEEF16161706E807F90734
:1006C000C0F012161306E407F50798F0621B730BCF
:1006D000840B950B39F40A2661F0232B242B252B50
:1006E00021F408950A2609F4A140A6958FEF811DF3
:1006F000811D089597F99F6780E870E060E0089594
:100700009FEF80EC089500240A9416161706180629
:100710000906089500240A94121613061406050605
:100720000895092E0394000C11F4882352F0BB0F96
:1007300040F4BF2B11F460FF04C06F5F7F4F8F4FF9
:100740009F4F089557FD9058440F551F59F05F3F34
:1007500071F04795880F97FB991F61F09F3F79F0E3
:1007600087950895121613061406551FF2CF469565
:10077000F1DF08C0161617061806991FF1CF8695E7
:100780007105610508940895E894BB2766277727CB
:10079000CB0197F908958ADF08F48FEF08950BD005
:1007A000C0CFB1DF28F0B6DF18F0952309F0A2CF53
:1007B000A7CF1124EACFC6DFA0F3959FD1F3950F01
:1007C00050E0551F629FF001729FBB27F00DB11DD5
:1007D000639FAA27F00DB11DAA1F649F6627B00D65
:1007E000A11D661F829F2227B00DA11D621F739F4E
:1007F000B00DA11D621F839FA00D611D221F749F5C
:100800003327A00D611D231F849F600D211D822FA2
:10081000762F6A2F11249F5750408AF0E1F08823E9
:100820004AF0EE0FFF1FBB1F661F771F881F9150F6
:100830005040A9F79E3F510570F05CCFA6CF5F3FB7
:10084000ECF3983EDCF3869577956795B795F79529
:10085000E7959F5FC1F7FE2B880F911D96958795B1
:0808600097F90895F894FFCF09
:1008680062646870FEFDFBF7EFDFBF7F01000000E8
:00000001FF
