:100000000C9446000C9465000C9465000C946500FB
:100010000C9465000C9465000C9465000C946500CC
:100020000C9465000C9465000C9465000C946500BC
:100030000C9465000C9465000C9465000C946500AC
:100040000C9465000C9465000C9465000C9465009C
:100050000C9465000C9465000C9465000C9465008C
:100060000C9465000C9465000C9465000C9465007C
:100070000C9465000C9465000C9465000C9465006C
:100080000C9465000C9465000C94650011241FBE4F
:10009000CFEFD0E4DEBFCDBF11E0A0E0B1E0EAEDEC
:1000A000F1E000E00BBF02C007900D92AE30B10747
:1000B000D9F711E0AEE0B1E001C01D92AF30B10759
:1000C000E1F70E94E1000C94EB000C940000CF9348
:1000D000C82F8A3019F48DE00E9467009091C0000B
:1000E00095FFFCCFC093C60080E090E0CF910895CB
:1000F00020B12095422F417020B130E020953095FD
:10010000269521708230910541F134F4009761F019
:1001100081309105B9F051C08430910591F13CF1E5
:100120008530910531F049C0411130C0211131C0F5
:1001300044C0411102C0222379F14423F1F121117D
:100140002EC03BC0222311F041112CC041112DC003
:10015000222399F183E090E030C080910E01893034
:1001600038F58F5F80930E0185E090E026C0809186
:100170000E01882301F1815080930E0185E090E00B
:100180001CC010920E0185E090E017C081E090E065
:1001900014C081E090E011C081E090E00EC084E0E6
:1001A00090E00BC084E090E008C082E090E005C0E1
:1001B00085E090E002C085E090E020910E0128B932
:1001C00008958FEF87B918B811B882B980E090E030
:0A01D0000E947800FDCFF894FFCFE5
:0E01DA000000000200000000670000000000AE
:00000001FF
