:100000000C9446000C9465000C9465000C946500FB
:100010000C9465000C9465000C9465000C946500CC
:100020000C9465000C9465000C9465000C946500BC
:100030000C9465000C94C8010C9465000C94650048
:100040000C9465000C9465000C9465000C9465009C
:100050000C9465000C9465000C9465000C9465008C
:100060000C9465000C9465000C9465000C9465007C
:100070000C9465000C9465000C9465000C9465006C
:100080000C9465000C9465000C94650011241FBE4F
:10009000CFEFD0E4DEBFCDBF12E0A0E0B1E0EAE4F4
:1000A000F1E100E00BBF02C007900D92A834B10748
:1000B000D9F712E0A8E4B2E001C01D92AA39B10755
:1000C000E1F70E9414060C94A3080C94000040E091
:1000D00050E00CC000002F5F3F4F02C020E030E036
:1000E000273063E03607B4F34F5F5F4F4817590777
:1000F000ACF308955E9888B95F9A00005F9882E03B
:1001000090E00E946700089581E00E947A000895BF
:10011000813120F481580E947A00089581550E940F
:100120007A00089584E690E00E94670088E30E94C8
:100130007A0086E00E947A008FE00E947A0081E0D7
:100140000E947A008AE090E00E94670008955E9A1B
:1001500088B95F9A00005F9881E090E00E94670094
:100160000895EF92FF920F931F93CF93DF93182F71
:10017000EB010E9484000EC001E0010F812F0E945C
:1001800088007E018FEFE81AF80A88810E94A70094
:10019000102FE70188818111EFCFDF91CF911F915F
:1001A0000F91FF90EF90089520910001222309F410
:1001B00042C0009729F48EEF8093480281E090E0DE
:1001C0000097B1F081309105A9F420919402283074
:1001D00010F01092940220919402E22FF0E0E35F7D
:1001E000FE4F3081309348022F5F2093940202C06B
:1001F00081E090E0209186022830C0F020919202A8
:10020000243010F01092920220919202E22FF0E03E
:10021000EC5BFD4FE081F0E0E75FFE4F3081309313
:1002200093022F5F20939202109286022091860201
:100230002F5F209386020895009749F420B130E0A3
:100240002095309524FF03C021E0209300010895FC
:100250009C01809100018823D1F080918502883033
:1002600010F01092850290918502963069F440B1A9
:1002700050E04095509543705527452B29F08091CB
:1002800091028F5F809391029F5F90938502C901D5
:10029000089540E050E011C090E198B998B1282F3E
:1002A00030E0042E02C0359527950A94E2F72078B5
:1002B000292B28B9459A4F5F5F4F4830510564F3A9
:1002C000469A18B8089540E050E011C098E098B9F7
:1002D00098B1282F30E0042E02C0359527950A9456
:1002E000E2F72170292B28B9429A4F5F5F4F4830BF
:1002F000510564F3419A18B80895CF93DF93EC0148
:10030000009759F48FEF0E94490180919302806811
:100310000E9463018091910285B9CE01DF91CF9156
:10032000089521E030E002C0220F331F6A95E2F702
:10033000282381E009F480E008958BE08093810018
:100340008DE790E0909389008093880082E080930D
:100350006F00109285001092840080911501909199
:100360001601A0911701B091180180934902909352
:100370004A02A0934B02B0934C028FB780688FBFA4
:10038000089510928100089581E080934D020895B0
:100390001F920F920FB60F9211240BB60F922F934C
:1003A0003F934F935F936F937F938F939F93AF93FD
:1003B000BF93EF93FF938091490290914A02A091DD
:1003C0004B02B0914C020197A109B10980934902F7
:1003D00090934A02A0934B02B0934C02892B8A2B34
:1003E0008B2B91F40E94C40180911501909116010C
:1003F000A0911701B09118018093490290934A028D
:10040000A0934B02B0934C02FF91EF91BF91AF913B
:100410009F918F917F916F915F914F913F912F911C
:100420000F900BBE0F900FBE0F901F90189560930A
:100430001501709316018093170190931801609332
:10044000490270934A0280934B0290934C020895A4
:1004500080E480937C0087E880937A000895877019
:100460009927ECE7F0E09081987F892B8083EAE779
:10047000F0E080818064808380917A0086FDFCCFEB
:1004800080917800909179000895CF92DF92EF9259
:10049000FF926B017C0120918D0230918E02409180
:1004A0008F02509190020E94ED06882309F458C0F3
:1004B00020E030E0A901C701B6010E94ED068111DC
:1004C00006C0E1E9F0E080818870808305C0E1E941
:1004D000F0E080818360808328E539E344E75FE3CF
:1004E000C701B6010E94ED0688233CF48FEF9FEF11
:1004F000909399008093980027C020E034E244EF65
:1005000056E4C701B6010E943C0818162CF410925C
:1005100099001092980018C020E030E040E053E4C9
:10052000C701B6010E9440089B01AC0160E074E283
:1005300084EF9AE40E94F1060E9459076150710904
:100540007093990060939800109295001092940017
:10055000C0928D02D0928E02E0928F02F0929002B1
:10056000FF90EF90DF90CF9008953F924F925F926F
:100570006F927F928F929F92AF92BF92CF92DF92B3
:10058000EF92FF920F931F93CF93DF93CDB7DEB718
:10059000C254D2400FB6F894DEBF0FBECDBFCF5BC2
:1005A000DD4F99838883C154D24020B120952170BA
:1005B000322E80B140E050E06CED73E449835A8301
:1005C0006B837C830F2EFCE54F2E55245A94F8E361
:1005D0006F2EF4E47F2EF02D4D825E826F8278863E
:1005E0000F2EC12CF0EDDF2EF4E2EF2EF4E4FF2EFF
:1005F000F02DC986DA86EB86FC860F2EFEEA8F2E5A
:10060000F7E99F2EFAE0AF2EF4E4BF2EF02D8D8691
:100610009E86AF86B88A84EA90EFA6EFB3E4898B12
:100620009A8BAB8BBC8B4D8B5E8B6F8B788FC98E0F
:10063000DA8EEB8EFC8E8D8E9E8EAF8EB8A289A345
:100640009AA3ABA3BCA34DA35EA36FA378A719A6DF
:100650001AA61BA61CA64DA65EA66FA678AAC9AAB6
:10066000DAAAEBAAFCAA8DAA9EAAAFAAB8AE89AF55
:100670009AAFABAFBCAF21964CAF5DAF6EAF7FAF63
:10068000219725968CAF9DAFAEAFBFAF259729962A
:100690004CAF5DAF6EAF7FAF29972D968CAF9DAFFE
:1006A000AEAFBFAF2D9761964CAF5DAF6EAF7FAF72
:1006B00061976596CCAEDDAEEEAEFFAE65970AE013
:1006C00017E92AE833E469960CAF1DAF2EAF3FAFB0
:1006D00069976D968CAF9DAFAEAFBFAF6D97A1968A
:1006E0004CAF5DAF6EAF7FAFA197A5961CAE1DAEB0
:1006F0001EAE1FAEA597A9964CAE5DAE6EAE7FAE98
:10070000A997AD96CCAEDDAEEEAEFFAEAD97E1965D
:100710008CAE9DAEAEAEBFAEE197E5968CAF9DAF11
:10072000AEAFBFAFE597E9964CAF5DAF6EAF7FAFB1
:10073000E997ED96CCAEDDAEEEAEFFAEED97C358C9
:10074000DF4F88829982AA82BB82CD57D040CF5793
:10075000DF4F88839983AA83BB83C158D040CB578E
:10076000DF4F488359836A837B83C558D040C7577E
:10077000DF4F188219821A821B82C958D040C35792
:10078000DF4F488259826A827B82CD58D040CF5653
:10079000DF4FC882D982EA82FB82C159D040CB5652
:1007A000DF4F88829982AA82BB82C559D040C75642
:1007B000DF4F88839983AA83BB83C959D040C3562E
:1007C000DF4F488359836A837B83CD59D040CF550F
:1007D000DF4F88839983AA83BB83C15AD040CB550E
:1007E000DF4F488359836A837B83C55AD040C755FE
:1007F000DF4F88839983AA83BB83C95AD040C355EE
:10080000DF4F488359836A837B83CD5AD040CF54CE
:10081000DF4FC882D982EA82FB82C15BD040CB54D1
:10082000DF4F088319832A833B83C55BD040C754BD
:10083000DF4F88839983AA83BB83C95BD040C354AD
:10084000DF4F488359836A837B83CD5BD040CF538E
:10085000DF4F188219821A821B82C15CD04004EAE1
:1008600010ED24EA33E4CB53DF4F088319832A8346
:100870003B83C55CD04008EB1EEF28EB33E4C75345
:10088000DF4F088319832A833B83C95CD040C3535D
:10089000DF4F88829982AA82BB82CD5CD040CF5242
:1008A000DF4F88839983AA83BB83C15DD040CB523D
:1008B000DF4F488259826A827B82C55DD040C75231
:1008C000DF4FC882D982EA82FB82C95DD040C35221
:1008D000DF4F88829982AA82BB82CD5DD040CF5102
:1008E000DF4F88839983AA83BB83C15ED040CB51FD
:1008F000DF4F488359836A837B83C55ED040C751ED
:10090000DF4F188219821A821B82C95ED040C35100
:10091000DF4F488259826A827B82CD5ED040CF50C1
:10092000DF4FC882D982EA82FB82C15FD040CB50C0
:10093000DF4F88829982AA82BB82C55FD040C750B0
:10094000DF4F88839983AA83BB83C95FD040C3509C
:10095000DF4F488359836A837B83CD5FD040CF5F6D
:10096000DE4F88839983AA83BB83C150D140CB5F7C
:10097000DE4F488359836A837B83C550D140C75F6C
:10098000DE4F88839983AA83BB83C950D140C35F5C
:10099000DE4F488359836A837B83CD50D140CF5E3D
:1009A000DE4FC882D982EA82FB82C151D140CB5E40
:1009B000DE4F88829982AA82BB82C551D140C75E30
:1009C000DE4F88839983AA83BB83C951D140C35E1C
:1009D000DE4F488359836A837B83CD51D14080E2C7
:1009E00091E0E9E1F1E0DE01AF5DBE4F01900D92D3
:1009F0000197E1F780910001882309F4B6C0CF5B2D
:100A0000DD4F08811981C154D2400230110509F42B
:100A100061C03CF401151105A9F001301105E9F0A0
:100A20009AC0CF5BDD4F08811981C154D240043098
:100A3000110509F45DC00CF458C00530110509F426
:100A40005AC089C010928C0201E010E0CF5BDD4FEC
:100A500019830883C154D2407EC0E0908C026E2D71
:100A600070E080E090E00E948C07F0908B02CF2C29
:100A7000D12CE1E2F1E0EC0FFD1F14E0F19EE00D5E
:100A8000F11D112420813181428153810E94ED06A4
:100A90001816BCF0CC0CDD1CCC0CDD1CFE01EC0DE2
:100AA000FD1D81819281A381B481809387029093FF
:100AB0008802A0938902B0938A02E394E0928C02A8
:100AC0004AC027E42F1520F1F394F0928B02109284
:100AD0008C0241C010928702109288021092890203
:100AE00010928A0231101DC036C0332019F133C074
:100AF000311029C030C031102EC010928B0201E09D
:100B000010E0CF5BDD4F19830883C154D24023C06E
:100B100002E010E0CF5BDD4F19830883C154D2405F
:100B20001AC003E010E0CF5BDD4F19830883C15486
:100B3000D24011C004E010E0CF5BDD4F1983088381
:100B4000C154D24008C005E010E0CF5BDD4F1983EF
:100B50000883C154D24060918702709188028091CD
:100B6000890290918A020E944502CF5BDD4F888105
:100B70009981C154D240CE5BDD4F0FB6F894DEBFF1
:100B80000FBECDBFDF91CF911F910F91FF90EF90DE
:100B9000DF90CF90BF90AF909F908F907F906F909D
:100BA0005F904F903F90089580E4809390008BE099
:100BB0008093910060E070E0CB010E9445020895AF
:100BC000109290001092910008951F93CF93DF939D
:100BD000EB01642F70E00E94D90621E030E019C0DB
:100BE000269FF001279FF00D369FF00D1124EC1782
:100BF000FD0768F0D9011197A69FF001A79FF00D9E
:100C0000B69FF00D1124CE17DF0708F0122F2F5FCB
:100C10003F4FE42FF0E0E217F30714F7812F90E045
:100C2000DF91CF911F910895CF93DF93CDB7DEB7BA
:100C30002A970FB6F894DEBF0FBECDBF11B88FEF65
:100C400082B984B915B887B918B88AB91BB88AE0CF
:100C5000E9E3F2E0DE01119601900D928A95E1F749
:100C6000EAE7F2E0108248EC50E060E070E0418397
:100C7000528363837483458356836783708784EDCF
:100C800090E092878187EFE6F2E0108284E190E0C5
:100C9000A0E0B0E081839283A383B48385839683AD
:100CA000A783B0872CE131E032872187E4E6F2E0C8
:100CB00010824183528363837483458356836783A1
:100CC000708728E231E032872187E9E5F2E021E010
:100CD000208344E650E060E070E041835283638308
:100CE0007483458356836783708725EB32E03287B0
:100CF0002187EEE4F2E0108281839283A383B483A0
:100D000085839683A783B0878DE791E0928781875B
:100D10006AE070E080E090E00E9417020E949D016E
:100D20000E94D4050E9428020E949200E12CF12C1E
:100D300035C0F701EE0FFF1FEC0FFD1F018112817F
:100D4000D80115964D915D916D917C9118971196F2
:100D50008D919D910D90BC91A02D481759076A0760
:100D60007B0769F4D8011996ED91FC911A978C9143
:100D700090E00995F8011582168217821086F80115
:100D800085819681A781B0850A96A11DB11D8583B5
:100D90009683A783B087FFEFEF1AFF0A85E0E81676
:100DA000F10438F280914D028823E1F310924D0254
:100DB000BDCFAA1BBB1B51E107C0AA1FBB1FA617B3
:100DC000B70710F0A61BB70B881F991F5A95A9F7F4
:100DD00080959095BC01CD010895D9D008F481E0AB
:100DE00008950CD00FC107D140F0FED030F021F4AF
:100DF0005F3F19F0F0C0511139C1F3C014D198F31D
:100E00009923C9F35523B1F3951B550BBB27AA278B
:100E100062177307840738F09F5F5F4F220F331FFD
:100E2000441FAA1FA9F333D00E2E3AF0E0E830D0C9
:100E300091505040E695001CCAF729D0FE2F27D0CC
:100E4000660F771F881FBB1F261737074807AB079A
:100E5000B0E809F0BB0B802DBF01FF2793585F4F0F
:100E60002AF09E3F510568F0B6C000C15F3FECF329
:100E7000983EDCF3869577956795B795F7959F5FD4
:100E8000C9F7880F911D9695879597F90895E1E028
:100E9000660F771F881FBB1F621773078407BA0787
:100EA00020F0621B730B840BBA0BEE1F88F7E095E2
:100EB000089504D06894B111D9C00895BCD088F0C9
:100EC0009F5790F0B92F9927B751A0F0D1F0660F36
:100ED000771F881F991F1AF0BA95C9F712C0B13051
:100EE00081F0C3D0B1E00895C0C0672F782F882764
:100EF000B85F39F0B93FCCF3869577956795B39590
:100F0000D9F73EF490958095709561957F4F8F4FFE
:100F10009F4F0895E89409C097FB3EF49095809503
:100F2000709561957F4F8F4F9F4F9923A9F0F92FAF
:100F300096E9BB279395F695879577956795B7952D
:100F4000F111F8CFFAF4BB0F11F460FF1BC06F5F13
:100F50007F4F8F4F9F4F16C0882311F096E911C025
:100F6000772321F09EE8872F762F05C0662371F046
:100F700096E8862F70E060E02AF09A95660F771F5A
:100F8000881FDAF7880F9695879597F90895990F36
:100F90000008550FAA0BE0E8FEEF16161706E80743
:100FA000F907C0F012161306E407F50798F0621B64
:100FB000730B840B950B39F40A2661F0232B242B39
:100FC000252B21F408950A2609F4A140A6958FEF58
:100FD000811D811D089597F99F6780E870E060E0AA
:100FE00008959FEF80EC089500240A9416161706C2
:100FF00018060906089500240A941216130614060A
:1010000005060895092E0394000C11F4882352F06C
:10101000BB0F40F4BF2B11F460FF04C06F5F7F4F24
:101020008F4F9F4F089557FD9058440F551F59F00B
:101030005F3F71F04795880F97FB991F61F09F3FC5
:1010400079F087950895121613061406551FF2CFEE
:101050004695F1DF08C0161617061806991FF1CF3E
:1010600086957105610508940895E894BB27662765
:101070007727CB0197F908958ADF08F48FEF089559
:101080000BD0C0CFB1DF28F0B6DF18F0952309F000
:10109000A2CFA7CF1124EACFC6DFA0F3959FD1F34B
:1010A000950F50E0551F629FF001729FBB27F00D16
:1010B000B11D639FAA27F00DB11DAA1F649F66276B
:1010C000B00DA11D661F829F2227B00DA11D621FBA
:1010D000739FB00DA11D621F839FA00D611D221F74
:1010E000749F3327A00D611D231F849F600D211D58
:1010F000822F762F6A2F11249F5750408AF0E1F0FB
:1011000088234AF0EE0FFF1FBB1F661F771F881F43
:1011100091505040A9F79E3F510570F05CCFA6CF8B
:101120005F3FECF3983EDCF3869577956795B7952E
:10113000F795E7959F5FC1F7FE2B880F911D969558
:0A114000879597F90895F894FFCF02
:10114A00010102040810204080081020407FBFDF00
:10115A00EFF7FBFDFE0100000000000040000080E8
:10116A003F00000040000000400000004000000076
:10117A0040000000400000803F00000040000000E6
:10118A0040000000400000803F0000803F000080D7
:10119A003F0000803F0000803F0000803F00008049
:1011AA003F0000803F0000803F0000803F00008039
:1011BA003F0000803F000000400000004000008027
:1011CA003F00000040000000400000004000000016
:1011DA0040000000400000803F0000004000000086
:1011EA0040000000400000803F0000803F00008077
:1011FA003F0000803F0000803F0000803F000080E9
:10120A003F0000803F0000803F0000803F000080D8
:10121A003F0000803F0000004000000040000080C6
:10122A003F000000400000004000000040000000B5
:10123A0040000000400000803F0000004000000025
:10124A0040000000400000803F0000803F00008016
:10125A003F0000803F0000803F0000803F00008088
:10126A003F0000803F0000803F0000803F00008078
:10127A003F0000803F0000803F7A026F02640259FB
:08128A00024E02040001020300
:00000001FF
