:100000000C9446000C945D000C945D000C945D0013
:100010000C945D000C945D000C945D000C945D00EC
:100020000C945D000C945D000C945D000C945D00DC
:100030000C945D000C945D000C945D000C945D00CC
:100040000C945D000C945D000C945D000C945D00BC
:100050000C945D000C945D000C945D000C945D00AC
:100060000C945D000C945D000C945D000C945D009C
:100070000C945D000C945D000C945D000C945D008C
:100080000C945D000C945D000C945D0011241FBE67
:10009000CFEFD0E4DEBFCDBF11E0A0E0B1E0E4E4FB
:1000A000F1E000E00BBF02C007900D92AE30B10747
:1000B000D9F70E9470000C94A0000C940000CF931C
:1000C000C82F8A3019F48DE00E945F009091C00023
:1000D00095FFFCCFC093C60080E090E0CF910895DB
:1000E00011B88FEF82B987B918B890E080B18095C8
:1000F0008F7009F490E42FEF280F2230A0F02DEF3D
:10010000280F223090F02BEF280F223080F029EFBB
:10011000280F233070F026EF280F233060F08D5029
:10012000833058F00BC090E609C090E707C098E311
:1001300005C09CE303C09EE301C09FE398B9D6CFFE
:04014000F894FFCF61
:0E01440000000002000000005F00000000004C
:00000001FF
