:100000000C9446000C9465000C9465000C946500FB
:100010000C9465000C9465000C9465000C946500CC
:100020000C9465000C9465000C9465000C946500BC
:100030000C9465000C9492000C9465000C9465007F
:100040000C9465000C9465000C9465000C9465009C
:100050000C9465000C9465000C9465000C9465008C
:100060000C9465000C9465000C9465000C9465007C
:100070000C9465000C9465000C9465000C9465006C
:100080000C9465000C9465000C94650011241FBE4F
:10009000CFEFD0E4DEBFCDBF11E0A0E0B1E0E2E4FD
:1000A000F3E000E00BBF02C007900D92A430B1074F
:1000B000D9F711E0A4E0B1E001C01D92AA30B10768
:1000C000E1F70E9485010C949F010C9400008BE0E5
:1000D000809381008DE790E0909389008093880061
:1000E00082E080936F0010928500109284008091CE
:1000F000000190910101A0910201B0910301809350
:10010000040190930501A0930601B09307018FB7F6
:1001100080688FBF089510928100089581E08093D8
:10012000080108951F920F920FB60F9211240BB67B
:100130000F922F933F934F935F936F937F938F9380
:100140009F93AF93BF93EF93FF938091040190919E
:100150000501A0910601B09107010197A109B1091C
:100160008093040190930501A0930601B0930701C9
:10017000892B8A2B8B2B91F40E948E008091000199
:1001800090910101A0910201B091030180930401BB
:1001900090930501A0930601B0930701FF91EF91A1
:1001A000BF91AF919F918F917F916F915F914F918F
:1001B0003F912F910F900BBE0F900FBE0F901F908D
:1001C0001895609300017093010180930201909350
:1001D00003016093040170930501809306019093DD
:1001E0000701089540B1409520B130E02095309549
:1001F00026952170642F617040FF04C0211104C056
:1002000030E003C030E001C031E040B150E0409543
:1002100050954F70552782309105E1F034F40097E6
:1002200061F08130910579F051C08430910589F1F8
:10023000FCF08530910591F149C087E08093090178
:1002400081E090E043C0311130C0611131C0211113
:1002500032C03CC0662311F0211105C0611108C0F5
:10026000662321F005C084E090E002C081E090E0C8
:10027000662311F0211105C0211106C0662339F053
:1002800008C084E090E005C083E090E002C081E017
:1002900090E021111BC0662389F018C0452B89F01E
:1002A0006623A1F0211110C011C084E090E00EC0BF
:1002B00082E090E00BC083E090E008C081E090E035
:1002C00005C081E090E002C084E090E083309105B9
:1002D00071F08430910599F08230910591F420916C
:1002E0000901293070F42F5F209309010AC0209181
:1002F0000901222331F021502093090102C01092FC
:1003000009012091090125B908958FEF84B915B825
:1003100011B882B968EE73E080E090E00E94E100DD
:100320000E94670020E030E0C9010E94F2009C01B9
:10033000909108019923E1F310920801F5CFF89408
:02034000FFCFED
:0403420001000000B6
:00000001FF
