:100000000C9446000C9465000C9465000C946500FB
:100010000C9465000C9465000C9465000C946500CC
:100020000C9465000C9465000C9465000C946500BC
:100030000C9465000C94FF000C9465000C94650012
:100040000C9465000C9465000C9465000C9465009C
:100050000C9465000C9465000C9465000C9465008C
:100060000C9465000C9465000C9465000C9465007C
:100070000C9465000C9465000C9465000C9465006C
:100080000C9465000C9465000C94650011241FBE4F
:10009000CFEFD0E4DEBFCDBF11E0A0E0B1E0ECE7F0
:1000A000FAE000E00BBF02C007900D92A038B10744
:1000B000D9F711E0A0E8B1E001C01D92AF38B10757
:1000C000E1F70E946A030C943C050C94000040E0A8
:1000D00050E00CC000002F5F3F4F02C020E030E036
:1000E000273063E03607B4F34F5F5F4F4817590777
:1000F000ACF308955E9888B95F9A00005F9882E03B
:1001000090E00E946700089581E00E947A000895BF
:10011000813120F481580E947A00089581550E940F
:100120007A00089584E690E00E94670088E30E94C8
:100130007A0086E00E947A008FE00E947A0081E0D7
:100140000E947A008AE090E00E94670008955E9A1B
:1001500088B95F9A00005F9881E090E00E94670094
:100160000895EF92FF920F931F93CF93DF93182F71
:10017000EB010E9484000EC001E0010F812F0E945C
:1001800088007E018FEFE81AF80A88810E94A70094
:10019000102FE70188818111EFCFDF91CF911F915F
:1001A0000F91FF90EF9008958BE0809381008DE791
:1001B00090E0909389008093880082E080936F00A4
:1001C00010928500109284008091000190910101AD
:1001D000A0910201B091030180938001909381016D
:1001E000A0938201B09383018FB780688FBF089579
:1001F00010928100089581E08093840108951F92F8
:100200000F920FB60F9211240BB60F922F933F93BC
:100210004F935F936F937F938F939F93AF93BF930E
:10022000EF93FF938091800190918101A0918201D1
:10023000B09183010197A109B10980938001909346
:100240008101A0938201B0938301892B8A2B8B2B90
:1002500091F40E94FB008091000190910101A09116
:100260000201B09103018093800190938101A093DA
:100270008201B0938301FF91EF91BF91AF919F9164
:100280008F917F916F915F914F913F912F910F903F
:100290000BBE0F900FBE0F901F901895609300013A
:1002A0007093010180930201909303016093800198
:1002B0007093810180938201909383010895EAE70E
:1002C000F0E08081806E80830895CF92DF92EF927C
:1002D000FF926B017C0120918B0130918C01409148
:1002E0008D0150918E010E948603882309F458C025
:1002F00020E030E0A901C701B6010E948603811108
:1003000006C0E1E9F0E080818870808305C0E1E902
:10031000F0E080818360808328E539E344E75FE390
:10032000C701B6010E94860388233CF48FEF9FEF3C
:10033000909399008093980027C020E034E244EF26
:1003400056E4C701B6010E94D50418162CF4109289
:1003500099001092980018C020E030E040E053E48B
:10036000C701B6010E94D9049B01AC0160E074E2B0
:1003700084EF9AE40E948A030E94F203615071099B
:1003800070939900609398001092950010929400D9
:10039000C0928B01D0928C01E0928D01F0928E017F
:1003A000FF90EF90DF90CF90089580E480939000CD
:1003B0008BE08093910060E070E0CB010E946501CA
:1003C000089510929000109291000895CF92DF92BC
:1003D000EF92FF920F931F93CF93DF93CDB7DEB7CA
:1003E000C85FD1090FB6F894DEBF0FBECDBF8C0138
:1003F00080B18095282F217080B180B180B18CE7C9
:10040000E4E0F1E0DE01119601900D928A95E1F7AA
:10041000FE01E358FF4F8CE7DF011D928A95E9F753
:1004200040E050E060E271E4408351836283738373
:1004300044835583668377834087518762877387B8
:100440004487558766877787408B518B628B738B88
:10045000448B558B668B778B0F2EC12CD12CF0EAF9
:10046000EF2EF1E4FF2EF02DC08ED18EE28EF38EB2
:1004700080E090E0A0E8BFE3848F958FA68FB78FD0
:1004800040A351A362A373A344A355A366A377A378
:10049000C0A6D1A6E2A6F3A644A755A766A777A74C
:1004A000C0AAD1AAE2AAF3AA84AB95ABA6ABB7AB1C
:1004B000C0AED1AEE2AEF3AE84AF95AFA6AFB7AFEC
:1004C000C354DF4F488359836A837B83CD5BD0401D
:1004D000CF53DF4F488359836A837B83C15CD0400D
:1004E000CB53DF4F488359836A837B83C55CD040FD
:1004F000C753DF4F488359836A837B83C95CD040ED
:10050000C353DF4F488359836A837B83CD5CD040DC
:10051000CF52DF4FC882D982EA82FB82C15DD040D0
:10052000CB52DF4F88839983AA83BB83C55DD040BC
:10053000C752DF4F488359836A837B83C95DD040AC
:10054000C352DF4F488359836A837B83CD5DD0409C
:10055000CF51DF4F488359836A837B83C15ED0408C
:10056000CB51DF4F88839983AA83BB83C55ED0407C
:10057000C751DF4F488359836A837B83C95ED0406C
:10058000C351DF4F488359836A837B83CD5ED0405C
:10059000CF50DF4F488359836A837B83C15FD0404C
:1005A0000230110509F458C03CF40115110579F029
:1005B00001301105A1F073C00430110509F45AC0CF
:1005C0000CF455C00530110509F457C068C022234A
:1005D00009F465C010928A0101E010E060C0E0906B
:1005E0008A016E2D70E080E090E00E942504F0907A
:1005F0008901CF2CD12CEDE7F0E0EC0FFD1FB4E02A
:10060000FB9EE00DF11D1124208131814281538137
:100610000E9486031816BCF0CC0CDD1CCC0CDD1C33
:10062000FE01EC0DFD1D81819281A381B481809337
:10063000850190938601A0938701B0938801E3948C
:10064000E0928A012CC02EE12F15F0F0F394F09285
:10065000890110928A0123C01092850110928601AF
:100660001092870110928801211111C018C0222315
:1006700089F015C0211111C012C0211110C01092B3
:10068000890101E010E00BC002E010E008C003E0C7
:1006900010E005C004E010E002C005E010E0609149
:1006A00085017091860180918701909188010E9457
:1006B0006501C801C850DF4F0FB6F894DEBF0FBE0A
:1006C000CDBFDF91CF911F910F91FF90EF90DF9001
:1006D000CF9008958FEF84B915B811B882B969E148
:1006E00070E080E090E00E944E010E94D4000E94E1
:1006F000D50120E030E0C9010E94E6019C01909103
:1007000084019923E1F310928401F5CFD9D008F444
:1007100081E008950CD00FC107D140F0FED030F039
:1007200021F45F3F19F0F0C0511139C1F3C014D169
:1007300098F39923C9F35523B1F3951B550BBB27A8
:10074000AA2762177307840738F09F5F5F4F220F55
:10075000331F441FAA1FA9F333D00E2E3AF0E0E84E
:1007600030D091505040E695001CCAF729D0FE2F9A
:1007700027D0660F771F881FBB1F2617370748072C
:10078000AB07B0E809F0BB0B802DBF01FF279358E2
:100790005F4F2AF09E3F510568F0B6C000C15F3F31
:1007A000ECF3983EDCF3869577956795B795F795CA
:1007B0009F5FC9F7880F911D9695879597F90895C2
:1007C000E1E0660F771F881FBB1F6217730784075E
:1007D000BA0720F0621B730B840BBA0BEE1F88F76D
:1007E000E095089504D06894B111D9C00895BCD0A3
:1007F00088F09F5790F0B92F9927B751A0F0D1F00A
:10080000660F771F881F991F1AF0BA95C9F712C093
:10081000B13081F0C3D0B1E00895C0C0672F782F08
:100820008827B85F39F0B93FCCF3869577956795FF
:10083000B395D9F73EF490958095709561957F4F6B
:100840008F4F9F4F0895E89409C097FB3EF4909511
:100850008095709561957F4F8F4F9F4F9923A9F099
:10086000F92F96E9BB279395F69587957795679528
:10087000B795F111F8CFFAF4BB0F11F460FF1BC06C
:100880006F5F7F4F8F4F9F4F16C0882311F096E9FF
:1008900011C0772321F09EE8872F762F05C06623AD
:1008A00071F096E8862F70E060E02AF09A95660F66
:1008B000771F881FDAF7880F9695879597F908951F
:1008C000990F0008550FAA0BE0E8FEEF1616170661
:1008D000E807F907C0F012161306E407F50798F0C9
:1008E000621B730B840B950B39F40A2661F0232BE2
:1008F000242B252B21F408950A2609F4A140A6955E
:100900008FEF811D811D089597F99F6780E870E042
:1009100060E008959FEF80EC089500240A94161675
:10092000170618060906089500240A9412161306DD
:10093000140605060895092E0394000C11F488236B
:1009400052F0BB0F40F4BF2B11F460FF04C06F5F87
:100950007F4F8F4F9F4F089557FD9058440F551F5D
:1009600059F05F3F71F04795880F97FB991F61F031
:100970009F3F79F087950895121613061406551FA8
:10098000F2CF4695F1DF08C0161617061806991F14
:10099000F1CF86957105610508940895E894BB2709
:1009A00066277727CB0197F908958ADF08F48FEF40
:1009B00008950BD0C0CFB1DF28F0B6DF18F0952333
:1009C00009F0A2CFA7CF1124EACFC6DFA0F3959FED
:1009D000D1F3950F50E0551F629FF001729FBB2726
:1009E000F00DB11D639FAA27F00DB11DAA1F649FD2
:1009F0006627B00DA11D661F829F2227B00DA11D85
:100A0000621F739FB00DA11D621F839FA00D611D0A
:100A1000221F749F3327A00D611D231F849F600D2B
:100A2000211D822F762F6A2F11249F5750408AF064
:100A3000E1F088234AF0EE0FFF1FBB1F661F771FF0
:100A4000881F91505040A9F79E3F510570F05CCF30
:100A5000A6CF5F3FECF3983EDCF3869577956795DC
:100A6000B795F795E7959F5FC1F7FE2B880F911D0E
:0C0A70009695879597F90895F894FFCFAC
:100A7C00010000007B14E9437B14E9430000C443EC
:100A8C0000D002440000C443A4909B43719DAE432C
:100A9C0000000000719DAE43A4909B43719DAE433A
:100AAC00A4909B43719DAE4300000000719DAE432A
:100ABC0000000000719DAE4300D002447B14E9435A
:100ACC000000C443A4909B43719DAE430000000002
:100ADC00719DAE43A4909B43719DAE4300000000FA
:100AEC00719DAE430000C443719DAE43A4909B43E3
:00000001FF
