:100000000C9446000C9465000C9465000C946500FB
:100010000C9465000C9465000C9465000C946500CC
:100020000C9465000C9465000C9465000C946500BC
:100030000C9465000C94FF000C9465000C94650012
:100040000C9465000C9465000C9465000C9465009C
:100050000C9465000C9465000C9465000C9465008C
:100060000C9465000C9465000C9465000C9465007C
:100070000C9465000C9465000C9465000C9465006C
:100080000C9465000C9465000C94650011241FBE4F
:10009000CFEFD0E4DEBFCDBF12E0A0E0B1E0ECEAEC
:1000A000FDE000E00BBF02C007900D92A432B10743
:1000B000D9F712E0A4E2B2E001C01D92A333B10768
:1000C000E1F70E9402050C94D4060C94000040E075
:1000D00050E00CC000002F5F3F4F02C020E030E036
:1000E000273063E03607B4F34F5F5F4F4817590777
:1000F000ACF308955E9888B95F9A00005F9882E03B
:1001000090E00E946700089581E00E947A000895BF
:10011000813120F481580E947A00089581550E940F
:100120007A00089584E690E00E94670088E30E94C8
:100130007A0086E00E947A008FE00E947A0081E0D7
:100140000E947A008AE090E00E94670008955E9A1B
:1001500088B95F9A00005F9881E090E00E94670094
:100160000895EF92FF920F931F93CF93DF93182F71
:10017000EB010E9484000EC001E0010F812F0E945C
:1001800088007E018FEFE81AF80A88810E94A70094
:10019000102FE70188818111EFCFDF91CF911F915F
:1001A0000F91FF90EF9008958BE0809381008DE791
:1001B00090E0909389008093880082E080936F00A4
:1001C00010928500109284008091000190910101AD
:1001D000A0910201B0910301809324029093250223
:1001E000A0932602B09327028FB780688FBF08952F
:1001F00010928100089581E08093280208951F9253
:100200000F920FB60F9211240BB60F922F933F93BC
:100210004F935F936F937F938F939F93AF93BF930E
:10022000EF93FF938091240290912502A0912602E2
:10023000B09127020197A109B109809324029093FC
:100240002502A0932602B0932702892B8A2B8B2BA1
:1002500091F40E94FB008091000190910101A09116
:100260000201B09103018093240290932502A09390
:100270002602B0932702FF91EF91BF91AF919F911A
:100280008F917F916F915F914F913F912F910F903F
:100290000BBE0F900FBE0F901F901895609300013A
:1002A00070930101809302019093030160932402F3
:1002B0007093250280932602909327020895EAE71F
:1002C000F0E08081806E80830895CF92DF92EF927C
:1002D000FF926B017C0120912F02309130024091FE
:1002E0003102509132020E941E05882309F458C041
:1002F00020E030E0A901C701B6010E941E0581116E
:1003000006C0E1E9F0E080818870808305C0E1E902
:10031000F0E080818360808328E539E344E75FE390
:10032000C701B6010E941E0588233CF48FEF9FEFA2
:10033000909399008093980027C020E034E244EF26
:1003400056E4C701B6010E946D0618162CF41092EF
:1003500099001092980018C020E030E040E053E48B
:10036000C701B6010E9471069B01AC0160E074E216
:1003700084EF9AE40E9422050E948A056150710967
:1003800070939900609398001092950010929400D9
:10039000C0922F02D0923002E0923102F0923202EB
:1003A000FF90EF90DF90CF90089580E480939000CD
:1003B0008BE08093910060E070E0CB010E946501CA
:1003C0000895109290001092910008953F924F92DC
:1003D0005F926F927F928F929F92AF92BF92CF92D5
:1003E000DF92EF92FF920F931F93CF93DF93CDB7DE
:1003F000DEB7C254D2400FB6F894DEBF0FBECDBFF9
:10040000CF5BDD4F99838883C154D24020B12095C2
:100410002170322E80B180B140E050E06CED74E488
:1004200049835A836B837C830F2EFCE54F2E552422
:100430005A94F8E36F2EF5E47F2EF02D4D825E8204
:100440006F8278860F2EF2E5CF2EF0EDDF2EF4E2EC
:10045000EF2EF5E4FF2EF02DC986DA86EB86FC86BA
:100460000F2EFCE58F2EF7E99F2EFAE0AF2EF5E474
:10047000BF2EF02D8D869E86AF86B88A86EF90EFD0
:10048000A6EFB4E4898B9A8BAB8BBC8B4D8B5E8BC8
:100490006F8B788FC98EDA8EEB8EFC8E8D8E9E8E52
:1004A000AF8EB8A289A39AA3ABA3BCA34DA35EA3AE
:1004B0006FA378A719A61AA61BA61CA64DA65EA612
:1004C0006FA678AAC9AADAAAEBAAFCAA8DAA9EAA44
:1004D000AFAAB8AE89AF9AAFABAFBCAF21964CAF65
:1004E0005DAF6EAF7FAF219725968CAF9DAFAEAF5E
:1004F000BFAF259729964CAF5DAF6EAF7FAF299701
:100500002D968CAF9DAFAEAFBFAF2D9761964CAF20
:100510005DAF6EAF7FAF61976596CCAEDDAEEEAEF0
:10052000FFAE65970CE517E92AE834E469960CAF4D
:100530001DAF2EAF3FAF69976D968CAF9DAFAEAF3D
:10054000BFAF6D97A1964CAF5DAF6EAF7FAFA19778
:10055000A5961CAE1DAE1EAE1FAEA597A9964CAEBD
:100560005DAE6EAE7FAEA997AD96CCAEDDAEEEAE13
:10057000FFAEAD97E1968CAE9DAEAEAEBFAEE1974D
:10058000E5968CAF9DAFAEAFBFAFE597E9964CAFA8
:100590005DAF6EAF7FAFE997ED96CCAEDDAEEEAE60
:1005A000FFAEED97C358DF4F88829982AA82BB8243
:1005B000CD57D040CF57DF4F88839983AA83BB8321
:1005C000C158D040CB57DF4F488359836A837B8320
:1005D000C558D040C757DF4F188219821A821B8234
:1005E000C958D040C357DF4F488259826A827B8204
:1005F000CD58D040CF56DF4FC882D982EA82FB82E5
:10060000C159D040CB56DF4F88829982AA82BB82E3
:10061000C559D040C756DF4F88839983AA83BB83CF
:10062000C959D040C356DF4F488359836A837B83BF
:10063000CD59D040CF55DF4F88839983AA83BB83A0
:10064000C15AD040CB55DF4F488359836A837B839F
:10065000C55AD040C755DF4F88839983AA83BB838F
:10066000C95AD040C355DF4F488359836A837B837F
:10067000CD5AD040CF54DF4FC882D982EA82FB8264
:10068000C15BD040CB54DF4F088319832A833B835F
:10069000C55BD040C754DF4F88839983AA83BB834F
:1006A000C95BD040C354DF4F488359836A837B833F
:1006B000CD5BD040CF53DF4F188219821A821B8244
:1006C000C15CD04002E510ED24EA34E4CB53DF4FA7
:1006D000088319832A833B83C55CD0400CE51FEF58
:1006E00028EB34E4C753DF4F088319832A833B8305
:1006F000C95CD040C353DF4F88829982AA82BB82F3
:10070000CD5CD040CF52DF4F88839983AA83BB83CF
:10071000C15DD040CB52DF4F488259826A827B82D2
:10072000C55DD040C752DF4FC882D982EA82FB82C2
:10073000C95DD040C352DF4F88829982AA82BB82B2
:10074000CD5DD040CF51DF4F88839983AA83BB838F
:10075000C15ED040CB51DF4F488359836A837B838E
:10076000C55ED040C751DF4F188219821A821B82A2
:10077000C95ED040C351DF4F488259826A827B8272
:10078000CD5ED040CF50DF4FC882D982EA82FB8253
:10079000C15FD040CB50DF4F88829982AA82BB8252
:1007A000C55FD040C750DF4F88839983AA83BB833E
:1007B000C95FD040C350DF4F488359836A837B832E
:1007C000CD5FD040CF5FDE4F88839983AA83BB8300
:1007D000C150D140CB5FDE4F488359836A837B830E
:1007E000C550D140C75FDE4F88839983AA83BB83FE
:1007F000C950D140C35FDE4F488359836A837B83EE
:10080000CD50D140CF5EDE4FC882D982EA82FB82D2
:10081000C151D140CB5EDE4F88829982AA82BB82D1
:10082000C551D140C75EDE4F88839983AA83BB83BD
:10083000C951D140C35EDE4F488359836A837B83AD
:10084000CD51D14080E291E0E4E0F1E0DE01AF5D26
:10085000BE4F01900D920197E1F7CF5BDD4F08810C
:100860001981C154D2400230110509F461C03CF431
:1008700001151105A9F001301105E9F09AC0CF5B0F
:10088000DD4F08811981C154D2400430110509F4AB
:100890005DC00CF458C00530110509F45AC089C078
:1008A00010922E0201E010E0CF5BDD4F1983088328
:1008B000C154D2407EC0E0902E026E2D70E080E0E8
:1008C00090E00E94BD05F0902D02CF2CD12CE1E2EA
:1008D000F1E0EC0FFD1F14E0F19EE00DF11D11247D
:1008E00020813181428153810E941E051816BCF07F
:1008F000CC0CDD1CCC0CDD1CFE01EC0DFD1D818142
:100900009281A381B4818093290290932A02A093BB
:100910002B02B0932C02E394E0922E024AC027E40B
:100920002F1520F1F394F0922D0210922E0241C067
:100930001092290210922A0210922B0210922C027D
:1009400031101DC036C0332019F133C0311029C019
:1009500030C031102EC010922D0201E010E0CF5BAC
:10096000DD4F19830883C154D24023C002E010E058
:10097000CF5BDD4F19830883C154D2401AC003E016
:1009800010E0CF5BDD4F19830883C154D24011C002
:1009900004E010E0CF5BDD4F19830883C154D240DF
:1009A00008C005E010E0CF5BDD4F19830883C15418
:1009B000D2406091290270912A0280912B0290917D
:1009C0002C020E946501CF5BDD4F88819981C15463
:1009D000D240CE5BDD4F0FB6F894DEBF0FBECDBF69
:1009E000DF91CF911F910F91FF90EF90DF90CF900B
:1009F000BF90AF909F908F907F906F905F904F903F
:100A00003F9008958FEF84B915B811B882B963E0AB
:100A100070E080E090E00E944E010E94D4000E94AD
:100A2000D50121E030E0C9010E94E6019C019091CE
:100A300028029923E1F310922802F5CFD9D008F4C7
:100A400081E008950CD00FC107D140F0FED030F006
:100A500021F45F3F19F0F0C0511139C1F3C014D136
:100A600098F39923C9F35523B1F3951B550BBB2775
:100A7000AA2762177307840738F09F5F5F4F220F22
:100A8000331F441FAA1FA9F333D00E2E3AF0E0E81B
:100A900030D091505040E695001CCAF729D0FE2F67
:100AA00027D0660F771F881FBB1F261737074807F9
:100AB000AB07B0E809F0BB0B802DBF01FF279358AF
:100AC0005F4F2AF09E3F510568F0B6C000C15F3FFE
:100AD000ECF3983EDCF3869577956795B795F79597
:100AE0009F5FC9F7880F911D9695879597F908958F
:100AF000E1E0660F771F881FBB1F6217730784072B
:100B0000BA0720F0621B730B840BBA0BEE1F88F739
:100B1000E095089504D06894B111D9C00895BCD06F
:100B200088F09F5790F0B92F9927B751A0F0D1F0D6
:100B3000660F771F881F991F1AF0BA95C9F712C060
:100B4000B13081F0C3D0B1E00895C0C0672F782FD5
:100B50008827B85F39F0B93FCCF3869577956795CC
:100B6000B395D9F73EF490958095709561957F4F38
:100B70008F4F9F4F0895E89409C097FB3EF49095DE
:100B80008095709561957F4F8F4F9F4F9923A9F066
:100B9000F92F96E9BB279395F695879577956795F5
:100BA000B795F111F8CFFAF4BB0F11F460FF1BC039
:100BB0006F5F7F4F8F4F9F4F16C0882311F096E9CC
:100BC00011C0772321F09EE8872F762F05C066237A
:100BD00071F096E8862F70E060E02AF09A95660F33
:100BE000771F881FDAF7880F9695879597F90895EC
:100BF000990F0008550FAA0BE0E8FEEF161617062E
:100C0000E807F907C0F012161306E407F50798F095
:100C1000621B730B840B950B39F40A2661F0232BAE
:100C2000242B252B21F408950A2609F4A140A6952A
:100C30008FEF811D811D089597F99F6780E870E00F
:100C400060E008959FEF80EC089500240A94161642
:100C5000170618060906089500240A9412161306AA
:100C6000140605060895092E0394000C11F4882338
:100C700052F0BB0F40F4BF2B11F460FF04C06F5F54
:100C80007F4F8F4F9F4F089557FD9058440F551F2A
:100C900059F05F3F71F04795880F97FB991F61F0FE
:100CA0009F3F79F087950895121613061406551F75
:100CB000F2CF4695F1DF08C0161617061806991FE1
:100CC000F1CF86957105610508940895E894BB27D6
:100CD00066277727CB0197F908958ADF08F48FEF0D
:100CE00008950BD0C0CFB1DF28F0B6DF18F0952300
:100CF00009F0A2CFA7CF1124EACFC6DFA0F3959FBA
:100D0000D1F3950F50E0551F629FF001729FBB27F2
:100D1000F00DB11D639FAA27F00DB11DAA1F649F9E
:100D20006627B00DA11D661F829F2227B00DA11D51
:100D3000621F739FB00DA11D621F839FA00D611DD7
:100D4000221F749F3327A00D611D231F849F600DF8
:100D5000211D822F762F6A2F11249F5750408AF031
:100D6000E1F088234AF0EE0FFF1FBB1F661F771FBD
:100D7000881F91505040A9F79E3F510570F05CCFFD
:100D8000A6CF5F3FECF3983EDCF3869577956795A9
:100D9000B795F795E7959F5FC1F7FE2B880F911DDB
:0C0DA0009695879597F90895F894FFCF79
:100DAC00010000000000A041000020410000A04113
:100DBC000000A0410000A0410000A0410000A041A3
:100DCC0000002041000020410000A0410000A04193
:100DDC000000204100002041000020410000204183
:100DEC000000204100002041000020410000204173
:100DFC000000204100002041000020410000204163
:100E0C000000A0410000A041000020410000A041D2
:100E1C000000A0410000A0410000A0410000A04142
:100E2C0000002041000020410000A0410000A04132
:100E3C000000204100002041000020410000204122
:100E4C000000204100002041000020410000204112
:100E5C000000204100002041000020410000204102
:100E6C000000A0410000A041000020410000A04172
:100E7C000000A0410000A0410000A0410000A041E2
:100E8C00000020410000A0410000A0410000A04152
:100E9C0000002041000020410000204100002041C2
:100EAC0000002041000020410000204100002041B2
:100EBC0000002041000020410000204100002041A2
:040ECC0000002041C1
:00000001FF
