:100000000C9446000C9465000C9465000C946500FB
:100010000C9465000C9465000C9465000C946500CC
:100020000C9465000C9465000C9465000C946500BC
:100030000C9465000C9465000C9465000C946500AC
:100040000C9465000C9465000C9465000C9465009C
:100050000C9465000C9465000C9465000C9465008C
:100060000C9465000C9465000C9465000C9465007C
:100070000C9465000C9465000C9465000C9465006C
:100080000C9465000C9465000C94650011241FBE4F
:10009000CFEFD0E4DEBFCDBF11E0A0E0B1E0E0EDF6
:1000A000F1E000E00BBF02C007900D92AE30B10747
:1000B000D9F711E0AEE0B1E001C01D92AF30B10759
:1000C000E1F70E94DC000C94E6000C940000CF9352
:1000D000C82F8A3019F48DE00E9467009091C0000B
:1000E00095FFFCCFC093C60080E090E0CF910895CB
:1000F00020B12095422F417020B130E020953095FD
:100100002695217082309105D1F034F4009749F1A1
:100110008130910549F033C084309105B1F094F0FD
:1001200085309105A9F02BC0222311F041111CC08C
:1001300041111DC0222319F183E090E020C085E029
:1001400090E01DC085E090E01AC085E090E017C007
:10015000411102C0222371F0442389F021110DC006
:100160000EC081E090E00BC084E090E008C082E027
:1001700090E005C081E090E002C084E090E0833030
:10018000910571F08430910589F08230910581F4F8
:1001900020910E01293060F42F5F20930E0108C0DA
:1001A00020910E01215020930E0102C010920E01E9
:1001B00020910E0128B908958FEF87B918B811B8AA
:1001C00082B980E090E00E947800FDCFF894FFCFE4
:0E01D0000000000200000000670000000000B8
:00000001FF
