:100000000C9446000C9465000C9465000C946500FB
:100010000C9465000C9465000C9465000C946500CC
:100020000C9465000C9465000C9465000C946500BC
:100030000C9465000C94D8010C9465000C94650038
:100040000C9465000C9465000C9465000C9465009C
:100050000C9465000C9465000C9465000C9465008C
:100060000C9465000C9465000C9465000C9465007C
:100070000C9465000C9465000C9465000C9465006C
:100080000C9465000C9465000C94650011241FBE4F
:10009000CFEFD0E4DEBFCDBF11E0A0E0B1E0ECE5F2
:1000A000F9E000E00BBF02C007900D92AE31B1073E
:1000B000D9F711E0AEE1B1E001C01D92AB35B10757
:1000C000E1F70E94D5020C94AC040C94000040E0CF
:1000D00050E00CC000002F5F3F4F02C020E030E036
:1000E000273063E03607B4F34F5F5F4F4817590777
:1000F000ACF308955E9888B95F9A00005F9882E03B
:1001000090E00E946700089581E00E947A000895BF
:10011000813120F481580E947A00089581550E940F
:100120007A00089584E690E00E94670088E30E94C8
:100130007A0086E00E947A008FE00E947A0081E0D7
:100140000E947A008AE090E00E94670008955E9A1B
:1001500088B95F9A00005F9881E090E00E94670094
:100160000895EF92FF920F931F93CF93DF93182F71
:10017000EB010E9484000EC001E0010F812F0E945C
:1001800088007E018FEFE81AF80A88810E94A70094
:10019000102FE70188818111EFCFDF91CF911F915F
:1001A0000F91FF90EF90089520915601222309F4BA
:1001B00042C0009729F48EEF80931E0181E090E009
:1001C0000097B1F081309105A9F4209159012830B0
:1001D00010F01092590120915901E22FF0E0E45FF4
:1001E000FE4F308130931E012F5F2093590102C0D2
:1001F00081E090E0209151012830C0F0209157011A
:10020000253010F01092570120915701E22FF0E0B5
:10021000E75EFE4FE081F0E0E85FFE4F3081309313
:1002200058012F5F209357011092510120915101E5
:100230002F5F209351010895009751F420B130E0D1
:100240002095309524FF04C021E02093560125B964
:1002500008959C0180915601882399F08091500166
:10026000883010F01092500180915001863019F4BE
:1002700081E085B901C015B8909150019F5F9093BE
:100280005001C9010895009731F420911E0128B949
:10029000209158012BB9089540E050E011C098E03A
:1002A00095B995B1282F30E0042E02C035952795D9
:1002B0000A94E2F72170292B25B9299A4F5F5F4FE5
:1002C0004830510564F32A9A15B80895429847E0DA
:1002D00050E033C0282F30E0042E02C0359527951A
:1002E0000A94E2F7922F917020FF07C028B1990F6E
:1002F000990F990F922B98B901C0439820E030E0F4
:1003000003C000002F5F3F4F2A303105D4F3419ADC
:1003100020E030E003C000002F5F3F4F2A3031055E
:10032000D4F3419820E030E003C000002F5F3F4F3E
:100330002A303105D4F34150510955235CF6429AD5
:10034000089521E030E002C0220F331F6A95E2F7E2
:10035000282381E009F480E008958BE080938100F8
:100360008DE790E0909389008093880082E08093ED
:100370006F0010928500109284008091140190917A
:100380001501A0911601B091170180931F01909360
:100390002001A0932101B09322018FB780688FBF05
:1003A000089510928100089581E0809323010895BB
:1003B0001F920F920FB60F9211240BB60F922F932C
:1003C0003F934F935F936F937F938F939F93AF93DD
:1003D000BF93EF93FF9380911F0190912001A09113
:1003E0002101B09122010197A109B10980931F0158
:1003F00090932001A0932101B0932201892B8A2B95
:100400008B2B91F40E94D4018091140190911501DD
:10041000A0911601B091170180931F0190932001C4
:10042000A0932101B0932201FF91EF91BF91AF9171
:100430009F918F917F916F915F914F913F912F91FC
:100440000F900BBE0F900FBE0F901F9018956093EA
:100450001401709315018093160190931701609316
:100460001F01709320018093210190932201089530
:1004700080E480937C0087E880937A0008958770F9
:10048000ECE7F0E09081987F892B8083EAE7F0E049
:1004900080818064808380917A0086FDFCCF80918A
:1004A0007800909179000895CF92DF92EF92FF92B9
:1004B0006B017C0120915201309153014091540114
:1004C000509155010E943303882309F458C020E05D
:1004D00030E0A901C701B6010E943303811106C0B3
:1004E000E1E9F0E080818870808305C0E1E9F0E017
:1004F00080818360808328E539E344E75FE3C701B7
:10050000B6010E94330388233CF48FEF9FEF909352
:1005100099008093980027C020E034E244EF56E42D
:10052000C701B6010E94450418162CF410929900D8
:100530001092980018C020E030E040E053E4C7017A
:10054000B6010E9449049B01AC0160E074E284EFB3
:100550009AE40E9437030E949F03615071097093CF
:100560009900609398001092950010929400C092A8
:100570005201D0925301E0925401F0925501FF9044
:10058000EF90DF90CF90089580E4809390008BE00F
:100590008093910060E070E0CB010E9454020895C6
:1005A0001092900010929100089511B88FEF82B9C7
:1005B00084B915B887B918B88AB91BB8E5E4F1E071
:1005C000108248EC50E060E070E041835283638326
:1005D0007483458356836783708784ED90E09287A8
:1005E0008187EAE3F1E0108284E190E0A0E0B0E0EE
:1005F00081839283A383B48385839683A783B08703
:100600002CE131E032872187EFE2F1E01082418373
:10061000528363837483458356836783708729E29B
:1006200031E032872187E4E2F1E010828183928316
:10063000A383B48385839683A783B08783E491E003
:10064000928781876AE070E080E090E00E94270254
:100650000E94AD010E94920080E885BF85BF8FE0B7
:100660000E944C01FCCF9CD008F481E008950CD08E
:10067000D2C0CAD040F0C1D030F021F45F3F19F0B1
:10068000B3C05111FCC0B6C0D7D098F39923C9F3B9
:100690005523B1F3951B550BBB27AA276217730788
:1006A000840738F09F5F5F4F220F331F441FAA1F3C
:1006B000A9F333D00E2E3AF0E0E830D091505040FC
:1006C000E695001CCAF729D0FE2F27D0660F771FAA
:1006D000881FBB1F261737074807AB07B0E809F08C
:1006E000BB0B802DBF01FF2793585F4F2AF09E3F21
:1006F000510568F079C0C3C05F3FECF3983EDCF36E
:10070000869577956795B795F7959F5FC9F7880F99
:10071000911D9695879597F90895E1E0660F771FEB
:10072000881FBB1F621773078407BA0720F0621B7C
:10073000730B840BBA0BEE1F88F7E095089504D075
:100740006894B1119CC008957FD088F09F5790F0B5
:10075000B92F9927B751A0F0D1F0660F771F881FE6
:10076000991F1AF0BA95C9F712C0B13081F086D03E
:10077000B1E0089583C0672F782F8827B85F39F0DC
:10078000B93FCCF3869577956795B395D9F73EF445
:1007900090958095709561957F4F8F4F9F4F0895ED
:1007A000990F0008550FAA0BE0E8FEEF1616170682
:1007B000E807F907C0F012161306E407F50798F0EA
:1007C000621B730B840B950B39F40A2661F0232B03
:1007D000242B252B21F408950A2609F4A140A6957F
:1007E0008FEF811D811D089597F99F6780E870E064
:1007F00060E008959FEF80EC089500240A94161697
:10080000170618060906089500240A9412161306FE
:10081000140605060895092E0394000C11F488238C
:1008200052F0BB0F40F4BF2B11F460FF04C06F5FA8
:100830007F4F8F4F9F4F089557FD9058440F551F7E
:1008400059F05F3F71F04795880F97FB991F61F052
:100850009F3F79F087950895121613061406551FC9
:10086000F2CF4695F1DF08C0161617061806991F35
:10087000F1CF86957105610508940895E894BB272A
:1008800066277727CB0197F908958ADF08F48FEF61
:1008900008950BD0C0CFB1DF28F0B6DF18F0952354
:1008A00009F0A2CFA7CF1124EACFC6DFA0F3959F0E
:1008B000D1F3950F50E0551F629FF001729FBB2747
:1008C000F00DB11D639FAA27F00DB11DAA1F649FF3
:1008D0006627B00DA11D661F829F2227B00DA11DA6
:1008E000621F739FB00DA11D621F839FA00D611D2C
:1008F000221F749F3327A00D611D231F849F600D4D
:10090000211D822F762F6A2F11249F5750408AF085
:10091000E1F088234AF0EE0FFF1FBB1F661F771F11
:10092000881F91505040A9F79E3F510570F05CCF51
:10093000A6CF5F3FECF3983EDCF3869577956795FD
:10094000B795F795E7959F5FC1F7FE2B880F911D2F
:0C0950009695879597F90895F894FFCFCD
:10095C00010204081020408062646870FEFDFBF701
:0E096C00EFDFBF7F0100000005040001020361
:00000001FF
