:100000000C9446000C9465000C9465000C946500FB
:100010000C9465000C9465000C9465000C946500CC
:100020000C9465000C9465000C9465000C946500BC
:100030000C9465000C94F0010C9465000C94650020
:100040000C9465000C9465000C9465000C9465009C
:100050000C9465000C9465000C9465000C9465008C
:100060000C9465000C9465000C9465000C9465007C
:100070000C9465000C9465000C9465000C9465006C
:100080000C9465000C9465000C94650011241FBE4F
:10009000CFEFD0E4DEBFCDBF11E0A0E0B1E0E8E9F2
:1000A000F9E000E00BBF02C007900D92A830B10745
:1000B000D9F711E0A8E0B1E001C01D92A035B10769
:1000C000E1F70E94D7020C94CA040C94000040E0AF
:1000D00050E00CC000002F5F3F4F02C020E030E036
:1000E000273063E03607B4F34F5F5F4F4817590777
:1000F000ACF308955E9888B95F9A00005F9882E03B
:1001000090E00E946700089581E00E947A000895BF
:10011000813120F481580E947A00089581550E940F
:100120007A00089584E690E00E94670088E30E94C8
:100130007A0086E00E947A008FE00E947A0081E0D7
:100140000E947A008AE090E00E94670008955E9A1B
:1001500088B95F9A00005F9881E090E00E94670094
:100160000895EF92FF920F931F93CF93DF93182F71
:10017000EB010E9484000EC001E0010F812F0E945C
:1001800088007E018FEFE81AF80A88810E94A70094
:10019000102FE70188818111EFCFDF91CF911F915F
:1001A0000F91FF90EF900895009721F08130910515
:1001B00039F0089588E08093090181E090E0089586
:1001C0001092090180E090E008958130910559F086
:1001D0008230910571F0009789F481E080930A01E3
:1001E00081E090E0089582E080930A0182E090E04F
:1001F000089584E080930A0180E090E008959C01D6
:1002000090B1909591702130310559F0223031052F
:1002100081F021153105E1F410920801911110C00F
:1002200017C080E18093080191110DC020E030E0FB
:100230000FC010920801911109C020E030E008C001
:1002400021E030E005C022E030E002C021E030E0F3
:10025000C901089520B130E0209530952695217090
:1002600040B150E04095509542FB442740F9813021
:10027000910581F01CF4009741F0089582309105BA
:1002800099F083309105D1F00895211119C04111E1
:100290001AC00895809100018A30C0F48F5F809366
:1002A000000183E090E0089580910001823088F0A1
:1002B00081508093000183E090E0089520B108957B
:1002C00081E090E0089582E090E0089583E090E07E
:1002D000089583E090E008959091090180910A01CA
:1002E000892B90910801892B85B908958BE0809323
:1002F00081008DE790E0909389008093880082E0F0
:1003000080936F001092850010928400809101010B
:1003100090910201A0910301B091040180930B011F
:1003200090930C01A0930D01B0930E018FB78068DC
:100330008FBF0895109281000895EF92FF921F934E
:10034000CF93DF9310E043C0C12FD0E0CE01880FE0
:10035000991F8C0F9D1F880F991F880F991FFC01F3
:10036000EC5EFE4F46815781608571858281938165
:10037000A481B581481759076A077B0778F07F0188
:10038000DF010284F385E02D8D919C910995F701A1
:100390009183808316821782108611869E01220F18
:1003A000331FC9018C0F9D1F880F991F880F991F3C
:1003B000FC01EC5EFE4F86819781A085B185019698
:1003C000A11DB11D86839783A087B1871F5F15305C
:1003D00008F4BACFDF91CF911F91FF90EF9008956D
:1003E0001F920F920FB60F9211240BB60F922F93FC
:1003F0003F934F935F936F937F938F939F93AF93AD
:10040000BF93EF93FF9380910B0190910C01A0910A
:100410000D01B0910E010197A109B10980930B0163
:1004200090930C01A0930D01B0930E01892B8A2BA0
:100430008B2B91F40E949D0180910101909102010A
:10044000A0910301B091040180930B0190930C01E2
:10045000A0930D01B0930E01FF91EF91BF91AF9169
:100460009F918F917F916F915F914F913F912F91CC
:100470000F900BBE0F900FBE0F901F9018956093BA
:100480000101709302018093030190930401609332
:100490000B0170930C0180930D0190930E01089550
:1004A000EAE7F0E08081806E80830895CF92DF924A
:1004B000EF92FF926B017C012091100130911101AC
:1004C00040911201509113010E945103882309F4B5
:1004D00058C020E030E0A901C701B6010E945103D5
:1004E000811106C0E1E9F0E080818870808305C059
:1004F000E1E9F0E080818360808328E539E344E727
:100500005FE3C701B6010E94510388233CF48FEFDB
:100510009FEF909399008093980027C020E034E2E9
:1005200044EF56E4C701B6010E94630418162CF488
:10053000109299001092980018C020E030E040E03E
:1005400053E4C701B6010E9467049B01AC0160E05F
:1005500074E284EF9AE40E9455030E94BD03615047
:100560007109709399006093980010929500109211
:100570009400C0921001D0921101E0921201F09209
:100580001301FF90EF90DF90CF90089580E4809367
:1005900090008BE08093910060E070E0CB010E94BE
:1005A00056020895109290001092910008958FEFD6
:1005B00084B915B811B882B9E4E1F1E01182108272
:1005C0008CE291E0A0E0B0E082839383A483B583C2
:1005D00086839783A087B18785EE90E09387828793
:1005E0001586148688EE93E0A0E0B0E086879787B2
:1005F000A08BB18B828B938BA48BB58B84ED90E019
:10060000978B868B118E108E81E090E0A0E0B0E099
:10061000828F938FA48FB58F868F978FA0A3B1A35E
:100620008AE291E093A382A315A214A28091000113
:1006300090E0A0E0B0E086A397A3A0A7B1A782A70F
:1006400093A7A4A7B5A78FEF90E097A786A711AAB5
:1006500010AA82E090E0A0E0B0E082AB93ABA4AB44
:10066000B5AB86AB97ABA0AFB1AF8CE691E093AFE3
:1006700082AF61E070E080E090E00E943F020E9463
:1006800076010E94C60280E090E001C001968530AC
:100690009105E0F380910F018823E1F310920F019F
:1006A000F2CF9CD008F481E008950CD0D2C0CAD01B
:1006B00040F0C1D030F021F45F3F19F0B3C05111C8
:1006C000FCC0B6C0D7D098F39923C9F35523B1F332
:1006D000951B550BBB27AA2762177307840738F0B1
:1006E0009F5F5F4F220F331F441FAA1FA9F333D010
:1006F0000E2E3AF0E0E830D091505040E695001CC4
:10070000CAF729D0FE2F27D0660F771F881FBB1F7F
:10071000261737074807AB07B0E809F0BB0B802D59
:10072000BF01FF2793585F4F2AF09E3F510568F0A5
:1007300079C0C3C05F3FECF3983EDCF386957795B4
:100740006795B795F7959F5FC9F7880F911D9695A7
:10075000879597F90895E1E0660F771F881FBB1F03
:10076000621773078407BA0720F0621B730B840BB0
:10077000BA0BEE1F88F7E095089504D06894B11184
:100780009CC008957FD088F09F5790F0B92F99278B
:10079000B751A0F0D1F0660F771F881F991F1AF08C
:1007A000BA95C9F712C0B13081F086D0B1E0089592
:1007B00083C0672F782F8827B85F39F0B93FCCF313
:1007C000869577956795B395D9F73EF49095809582
:1007D000709561957F4F8F4F9F4F0895990F000837
:1007E000550FAA0BE0E8FEEF16161706E807F90703
:1007F000C0F012161306E407F50798F0621B730B9E
:10080000840B950B39F40A2661F0232B242B252B1E
:1008100021F408950A2609F4A140A6958FEF811DC1
:10082000811D089597F99F6780E870E060E0089562
:100830009FEF80EC089500240A94161617061806F8
:100840000906089500240A941216130614060506D4
:100850000895092E0394000C11F4882352F0BB0F65
:1008600040F4BF2B11F460FF04C06F5F7F4F8F4FC8
:100870009F4F089557FD9058440F551F59F05F3F03
:1008800071F04795880F97FB991F61F09F3F79F0B2
:1008900087950895121613061406551FF2CF469534
:1008A000F1DF08C0161617061806991FF1CF8695B6
:1008B0007105610508940895E894BB27662777279A
:1008C000CB0197F908958ADF08F48FEF08950BD0D4
:1008D000C0CFB1DF28F0B6DF18F0952309F0A2CF22
:1008E000A7CF1124EACFC6DFA0F3959FD1F3950FD0
:1008F00050E0551F629FF001729FBB27F00DB11DA4
:10090000639FAA27F00DB11DAA1F649F6627B00D33
:10091000A11D661F829F2227B00DA11D621F739F1C
:10092000B00DA11D621F839FA00D611D221F749F2A
:100930003327A00D611D231F849F600D211D822F71
:10094000762F6A2F11249F5750408AF0E1F08823B8
:100950004AF0EE0FFF1FBB1F661F771F881F9150C5
:100960005040A9F79E3F510570F05CCFA6CF5F3F86
:10097000ECF3983EDCF3869577956795B795F795F8
:10098000E7959F5FC1F7FE2B880F911D9695879580
:0809900097F90895F894FFCFD8
:0809980005010000000500004C
:00000001FF
