:100000000C9446000C9465000C9465000C946500FB
:100010000C9465000C9465000C9465000C946500CC
:100020000C9465000C9465000C9465000C946500BC
:100030000C9465000C9425010C9465000C946500EB
:100040000C9465000C9465000C9465000C9465009C
:100050000C9465000C9465000C9465000C9465008C
:100060000C9465000C9465000C9465000C9465007C
:100070000C9465000C9465000C9465000C9465006C
:100080000C9465000C9465000C94650011241FBE4F
:10009000CFEFD0E4DEBFCDBF11E0A0E0B1E0ECE6F1
:1000A000F8E000E00BBF02C007900D92A630B10748
:1000B000D9F711E0A6E0B1E001C01D92A031B1076F
:1000C000E1F70E9482020C9434040C94000040E09A
:1000D00050E00CC000002F5F3F4F02C020E030E036
:1000E000273063E03607B4F34F5F5F4F4817590777
:1000F000ACF308955E9888B95F9A00005F9882E03B
:1001000090E00E946700089581E00E947A000895BF
:10011000813120F481580E947A00089581550E940F
:100120007A00089584E690E00E94670088E30E94C8
:100130007A0086E00E947A008FE00E947A0081E0D7
:100140000E947A008AE090E00E94670008955E9A1B
:1001500088B95F9A00005F9881E090E00E94670094
:100160000895EF92FF920F931F93CF93DF93182F71
:10017000EB010E9484000EC001E0010F812F0E945C
:1001800088007E018FEFE81AF80A88810E94A70094
:10019000102FE70188818111EFCFDF91CF911F915F
:1001A0000F91FF90EF90089540E050E011C091E072
:1001B00098B998B1282F30E0042E02C035952795C4
:1001C0000A94E2F72870292B28B9419A4F5F5F4FB4
:1001D0004830510564F3429A18B8089521E030E0A0
:1001E00002C0220F331F6A95E2F7282381E009F449
:1001F00080E008958BE0809381008DE790E09093FC
:1002000089008093880082E080936F0010928500BF
:10021000109284008091010190910201A09103014C
:10022000B09104018093060190930701A093080107
:10023000B09309018FB780688FBF08951092810035
:10024000089581E080930A0108951F920F920FB6DE
:100250000F9211240BB60F922F933F934F935F93FE
:100260006F937F938F939F93AF93BF93EF93FF937E
:100270008091060190910701A0910801B0910901B8
:100280000197A109B1098093060190930701A093FA
:100290000801B0930901892B8A2B8B2B91F40E94C2
:1002A00021018091010190910201A0910301B0917F
:1002B00004018093060190930701A0930801B09375
:1002C0000901FF91EF91BF91AF919F918F917F9124
:1002D0006F915F914F913F912F910F900BBE0F90B7
:1002E0000FBE0F901F90189560930101709302014B
:1002F00080930301909304016093060170930701BA
:100300008093080190930901089580E480937C0014
:1003100087E880937A00089587709927ECE7F0E0EA
:100320009081987F892B8083EAE7F0E08081806468
:10033000808380917A0086FDFCCF80917800909137
:1003400079000895CF92DF92EF92FF926B017C01CA
:1003500020910C0130910D0140910E0150910F013F
:100360000E94BB02882309F458C020E030E0A901B4
:10037000C701B6010E94BB02811106C0E1E9F0E0AD
:1003800080818870808305C0E1E9F0E0808183602E
:10039000808328E539E344E75FE3C701B6010E94A3
:1003A000BB0288233CF48FEF9FEF909399008093DA
:1003B000980027C020E034E244EF56E4C701B601BC
:1003C0000E94CD0318162CF41092990010929800F8
:1003D00018C020E030E040E053E4C701B6010E94BD
:1003E000D1039B01AC0160E074E284EF9AE40E94C7
:1003F000BF020E94270361507109709399006093B6
:1004000098001092950010929400C0920C01D09226
:100410000D01E0920E01F0920F01FF90EF90DF903E
:10042000CF90089580E4809390008BE080939100BA
:1004300060E070E0CB010E94A2010895109290004C
:100440001092910008951F93CF93DF93EB01642FD7
:1004500070E00E94A70221E030E019C0269FF00161
:10046000279FF00D369FF00D1124EC17FD0768F063
:10047000D9011197A69FF001A79FF00DB69FF00D2F
:100480001124CE17DF0708F0122F2F5F3F4FE42F04
:10049000F0E0E217F30714F7812F90E0DF91CF919E
:1004A0001F910895CF93DF93EC0180E090E00E94CC
:1004B0008C01209721F0C130D105B9F01CC08132E8
:1004C00023E0920738F020910001283018F4220F21
:1004D000209300018039914070F4809100018230B6
:1004E00050F086958093000106C0875292404D9748
:1004F00010F4C0E0D0E08091000185B9CE01DF9119
:10050000CF91089511B88FEF82B984B915B864E618
:1005100070E080E090E00E9474010E94FA000E9466
:1005200012020E9485010E94920080E090E00E94E9
:100530008C0180910B0190E00E94520280930B018C
:1005400080910A018823E1F310920A01EECFAA1BE1
:10055000BB1B51E107C0AA1FBB1FA617B70710F0AE
:10056000A61BB70B881F991F5A95A9F780959095E0
:10057000BC01CD0108959CD008F481E008950CD011
:10058000D2C0CAD040F0C1D030F021F45F3F19F0A2
:10059000B3C05111FCC0B6C0D7D098F39923C9F3AA
:1005A0005523B1F3951B550BBB27AA276217730779
:1005B000840738F09F5F5F4F220F331F441FAA1F2D
:1005C000A9F333D00E2E3AF0E0E830D091505040ED
:1005D000E695001CCAF729D0FE2F27D0660F771F9B
:1005E000881FBB1F261737074807AB07B0E809F07D
:1005F000BB0B802DBF01FF2793585F4F2AF09E3F12
:10060000510568F079C0C3C05F3FECF3983EDCF35E
:10061000869577956795B795F7959F5FC9F7880F8A
:10062000911D9695879597F90895E1E0660F771FDC
:10063000881FBB1F621773078407BA0720F0621B6D
:10064000730B840BBA0BEE1F88F7E095089504D066
:100650006894B1119CC008957FD088F09F5790F0A6
:10066000B92F9927B751A0F0D1F0660F771F881FD7
:10067000991F1AF0BA95C9F712C0B13081F086D02F
:10068000B1E0089583C0672F782F8827B85F39F0CD
:10069000B93FCCF3869577956795B395D9F73EF436
:1006A00090958095709561957F4F8F4F9F4F0895DE
:1006B000990F0008550FAA0BE0E8FEEF1616170673
:1006C000E807F907C0F012161306E407F50798F0DB
:1006D000621B730B840B950B39F40A2661F0232BF4
:1006E000242B252B21F408950A2609F4A140A69570
:1006F0008FEF811D811D089597F99F6780E870E055
:1007000060E008959FEF80EC089500240A94161687
:10071000170618060906089500240A9412161306EF
:10072000140605060895092E0394000C11F488237D
:1007300052F0BB0F40F4BF2B11F460FF04C06F5F99
:100740007F4F8F4F9F4F089557FD9058440F551F6F
:1007500059F05F3F71F04795880F97FB991F61F043
:100760009F3F79F087950895121613061406551FBA
:10077000F2CF4695F1DF08C0161617061806991F26
:10078000F1CF86957105610508940895E894BB271B
:1007900066277727CB0197F908958ADF08F48FEF52
:1007A00008950BD0C0CFB1DF28F0B6DF18F0952345
:1007B00009F0A2CFA7CF1124EACFC6DFA0F3959FFF
:1007C000D1F3950F50E0551F629FF001729FBB2738
:1007D000F00DB11D639FAA27F00DB11DAA1F649FE4
:1007E0006627B00DA11D661F829F2227B00DA11D97
:1007F000621F739FB00DA11D621F839FA00D611D1D
:10080000221F749F3327A00D611D231F849F600D3D
:10081000211D822F762F6A2F11249F5750408AF076
:10082000E1F088234AF0EE0FFF1FBB1F661F771F02
:10083000881F91505040A9F79E3F510570F05CCF42
:10084000A6CF5F3FECF3983EDCF3869577956795EE
:10085000B795F795E7959F5FC1F7FE2B880F911D20
:0C0860009695879597F90895F894FFCFBE
:06086C0004010000000081
:00000001FF
