:100000000C9446000C9465000C9465000C946500FB
:100010000C9465000C9465000C9465000C946500CC
:100020000C9465000C9465000C9465000C946500BC
:100030000C9465000C94FF000C9465000C94650012
:100040000C9465000C9465000C9465000C9465009C
:100050000C9465000C9465000C9465000C9465008C
:100060000C9465000C9465000C9465000C9465007C
:100070000C9465000C9465000C9465000C9465006C
:100080000C9465000C9465000C94650011241FBE4F
:10009000CFEFD0E4DEBFCDBF11E0A0E0B1E0E4E4FB
:1000A000F4E000E00BBF02C007900D92A430B1074E
:1000B000D9F711E0A4E0B1E001C01D92AA30B10768
:1000C000E1F70E9465010C9420020C94000040E0CE
:1000D00050E00CC000002F5F3F4F02C020E030E036
:1000E000273063E03607B4F34F5F5F4F4817590777
:1000F000ACF308955E9888B95F9A00005F9882E03B
:1001000090E00E946700089581E00E947A000895BF
:10011000813120F481580E947A00089581550E940F
:100120007A00089584E690E00E94670088E30E94C8
:100130007A0086E00E947A008FE00E947A0081E0D7
:100140000E947A008AE090E00E94670008955E9A1B
:1001500088B95F9A00005F9881E090E00E94670094
:100160000895EF92FF920F931F93CF93DF93182F71
:10017000EB010E9484000EC001E0010F812F0E945C
:1001800088007E018FEFE81AF80A88810E94A70094
:10019000102FE70188818111EFCFDF91CF911F915F
:1001A0000F91FF90EF9008958BE0809381008DE791
:1001B00090E0909389008093880082E080936F00A4
:1001C00010928500109284008091000190910101AD
:1001D000A0910201B0910301809304019093050165
:1001E000A0930601B09307018FB780688FBF089571
:1001F00010928100089581E08093080108951F9274
:100200000F920FB60F9211240BB60F922F933F93BC
:100210004F935F936F937F938F939F93AF93BF930E
:10022000EF93FF938091040190910501A091060145
:10023000B09107010197A109B1098093040190933E
:100240000501A0930601B0930701892B8A2B8B2B04
:1002500091F40E94FB008091000190910101A09116
:100260000201B09103018093040190930501A093D2
:100270000601B0930701FF91EF91BF91AF919F915C
:100280008F917F916F915F914F913F912F910F903F
:100290000BBE0F900FBE0F901F901895609300013A
:1002A0007093010180930201909303016093040114
:1002B0007093050180930601909307010895EAE782
:1002C000F0E08081806E808308958FEF84B915B847
:1002D0008AB91BB811B882B90E94920068EE73E027
:1002E00080E090E00E944E010E94D4000E945F01D5
:1002F00080917800909179008595859585B91BB896
:10030000F7CFCF93DF93EC0180B1809520B130E03F
:100310002095309526952170482F417080FF04C0AC
:10032000211104C080E003C080E001C081E0382FCB
:1003300080B190E0809590958F709927C230D1055B
:10034000D9F034F4209761F0C130D10571F050C07C
:10035000C430D10581F1F4F0C530D10589F148C030
:1003600010920901C1E0D0E043C0311130C0411109
:1003700031C0211132C03CC0442311F0211105C00D
:10038000411108C0442321F005C0C4E0D0E002C000
:10039000C1E0D0E0442311F0211105C0211106C0B5
:1003A000442339F008C0C4E0D0E005C0C3E0D0E089
:1003B00002C0C1E0D0E021111BC0442389F018C065
:1003C000892B89F04423A1F0211110C011C0C4E091
:1003D000D0E00EC0C2E0D0E00BC0C3E0D0E008C067
:1003E000C1E0D0E005C0C1E0D0E002C0C4E0D0E090
:1003F000C330D10571F0C430D10599F0C230D105B8
:1004000091F480910901893070F48F5F8093090124
:100410000AC080910901882331F08150809309013D
:1004200002C0109209018091090190E0C0960E94DB
:10043000A70081E00E948800CE01DF91CF9108954E
:04044000F894FFCF5E
:0404440001000000B3
:00000001FF
