:100000000C9446000C9465000C9465000C946500FB
:100010000C9465000C9465000C9465000C946500CC
:100020000C9465000C9465000C9465000C946500BC
:100030000C9465000C9423020C9465000C946500EC
:100040000C9465000C9465000C9465000C9465009C
:100050000C9465000C9465000C9465000C9465008C
:100060000C9465000C9465000C9465000C9465007C
:100070000C9465000C9465000C9465000C9465006C
:100080000C9465000C9465000C94650011241FBE4F
:10009000CFEFD0E4DEBFCDBF11E0A0E0B1E0E0EBF8
:1000A000FEE000E00BBF02C007900D92A63BB10737
:1000B000D9F712E0A6EBB1E001C01D92A531B1075E
:1000C000E1F70E94AC040C9456070C94000040E049
:1000D00050E00CC000002F5F3F4F02C020E030E036
:1000E000273063E03607B4F34F5F5F4F4817590777
:1000F000ACF308955E9888B95F9A00005F9882E03B
:1001000090E00E946700089581E00E947A000895BF
:10011000813120F481580E947A00089581550E940F
:100120007A00089584E690E00E94670088E30E94C8
:100130007A0086E00E947A008FE00E947A0081E0D7
:100140000E947A008AE090E00E94670008955E9A1B
:1001500088B95F9A00005F9881E090E00E94670094
:100160000895EF92FF920F931F93CF93DF93182F71
:10017000EB010E9484000EC001E0010F812F0E945C
:1001800088007E018FEFE81AF80A88810E94A70094
:10019000102FE70188818111EFCFDF91CF911F915F
:1001A0000F91FF90EF9008959C019091BD019830C0
:1001B00010F01092BD019091BD019F5F9093BD0121
:1001C000C9010895009721F082309105E9F0089562
:1001D00020B130E02095309521FF07C02091BC016F
:1001E000223019F421E025B9089520B130E020959E
:1001F000309521FF07C02091BC01223018F42F5FF9
:100200002093BC0115B80895009B04C01092BC0156
:1002100080E090E008951F93CF93DF93EC01009767
:1002200029F48EE78093B601C1E0D0E02097B1F0C9
:10023000C130D105A9F480910F02883010F01092DE
:100240000F0280910F02E82FF0E0E75EFE4F9081F1
:100250009093B6018F5F80930F0202C0C1E0D0E09F
:100260008091BE018730F1F5E0910D02F0E0EE568D
:10027000FE4F80910C0190E0008002C0959587951B
:100280000A94E2F7892B71F180910B028F5F8093C2
:100290000B020E94840080910B021DEC819F812D36
:1002A000112486958695869590E0C0960E94A700B9
:1002B00080910B02819F112D11241695169516958C
:1002C000110F912F990F990F190F811B90E0C09674
:1002D0000E94A70080910B0290910A02981710F4D7
:1002E00080930A028091BE01883008F43FC080915B
:1002F0000D02893158F110920E020E9484006BEABF
:1003000071E081E00E94B10080910B02CDEC8C9FE6
:10031000812D112486958695869590E0C0960E9441
:10032000A70080910B028C9FC12D1124C695C69504
:10033000C695CC0F9C2F990F990FC90F8C1B90E07D
:10034000C0960E94A700C2E0D0E010C0E82FF0E005
:10035000EE56FE4FE081F0E0EB5EFE4F9081909311
:100360000E028F5F80930D021092BE018091BE013C
:100370008F5F8093BE01CE01DF91CF911F910895D1
:1003800040E050E011C090E292B992B1282F30E0E5
:10039000042E02C0359527950A94E2F72470292B84
:1003A00022B9149A4F5F5F4F4830510564F3139A96
:1003B00082B1837C82B90895CF93DF93EC010097DB
:1003C00039F48091B6010E94C00180910E028BB970
:1003D000CE01DF91CF91089521E030E002C0220FDD
:1003E000331F6A95E2F7282381E009F480E008953D
:1003F0008BE0809381008DE790E09093890080935B
:10040000880082E080936F00109285001092840033
:100410008091210190912201A0912301B0912401AA
:100420008093B7019093B801A093B901B093BA013A
:100430008FB780688FBF089510928100089581E082
:100440008093BB0108951F920F920FB60F92112453
:100450000BB60F922F933F934F935F936F937F93BE
:100460008F939F93AF93BF93EF93FF938091B701C7
:100470009091B801A091B901B091BA010197A10979
:10048000B1098093B7019093B801A093B901B093DB
:10049000BA01892B8A2B8B2B91F40E941F02809129
:1004A000210190912201A0912301B0912401809318
:1004B000B7019093B801A093B901B093BA01FF912D
:1004C000EF91BF91AF919F918F917F916F915F91CC
:1004D0004F913F912F910F900BBE0F900FBE0F9039
:1004E0001F9018956093210170932201809323013E
:1004F000909324016093B7017093B8018093B90180
:100500009093BA01089580E480937C0087E88093FB
:100510007A00089587709927ECE7F0E09081987F42
:10052000892B8083EAE7F0E080818064808380917A
:100530007A0086FDFCCF8091780090917900089533
:10054000CF93DF93EC0180E090E00E948A02209735
:1005500021F0C130D105D9F021C0893E23E09207B6
:1005600048F020910C01283028F4220F20930C0130
:10057000C1E0D0E0883C910588F480910C01823084
:1005800068F0869580930C01C1E0D0E007C0855FDC
:1005900091408F34910510F4C0E0D0E0CE01DF919E
:1005A000CF910895CF92DF92EF92FF926B017C0181
:1005B0002091C4013091C5014091C6015091C701FD
:1005C0000E94A005882309F458C020E030E0A9016A
:1005D000C701B6010E94A005811106C0E1E9F0E063
:1005E00080818870808305C0E1E9F0E080818360CC
:1005F000808328E539E344E75FE3C701B6010E9441
:10060000A00588233CF48FEF9FEF9093990080938F
:10061000980027C020E034E244EF56E4C701B60159
:100620000E94EF0618162CF4109299001092980070
:1006300018C020E030E040E053E4C701B6010E945A
:10064000F3069B01AC0160E074E284EF9AE40E943F
:10065000A4050E940C066150710970939900609383
:1006600098001092950010929400C092C401D0920C
:10067000C501E092C601F092C701FF90EF90DF90B4
:10068000CF9008958F929F92AF92BF92CF92DF92B8
:10069000EF92FF920F931F93CF93DF93CDB7DEB707
:1006A000C85DD1090FB6F894DEBF0FBECDBF8C0177
:1006B00080B180B119821A821B821C8284EA90ED7B
:1006C000A4EAB3E48D839E83AF83B8874BE754EDF0
:1006D00062E973E449875A876B877C870F2EF4EAB7
:1006E000CF2EF0EDDF2EF2E8EF2EF3E4FF2EF02D0B
:1006F000CD86DE86EF86F88A498B5A8B6B8B7C8B96
:100700008D8B9E8BAF8BB88F898F9A8FAB8FBC8F61
:100710008D8F9E8FAF8FB8A349A35AA36BA37CA3E1
:100720004DA35EA36FA378A749A75AA76BA77CA781
:100730008DA79EA7AFA7B8AB0F2E812C912CF4EC00
:10074000AF2EF3E4BF2EF02D89AA9AAAABAABCAAB9
:100750008DAA9EAAAFAAB8AE89AF9AAFABAFBCAF15
:1007600021964CAF5DAF6EAF7FAF21972596CCAE93
:10077000DDAEEEAEFFAE259729964CAF5DAF6EAF06
:100780007FAF29972D968CAF9DAFAEAFBFAF2D97A2
:1007900061968CAF9DAFAEAFBFAF619765968CAFE2
:1007A0009DAFAEAFBFAF659769964CAF5DAF6EAF13
:1007B0007FAF69976D964CAF5DAF6EAF7FAF6D97B2
:1007C000A1968CAF9DAFAEAFBFAFA197A5964CAF32
:1007D0005DAF6EAF7FAFA597A996CCAEDDAEEEAEA6
:1007E000FFAEA997AD961CAE1DAE1EAE1FAEAD9767
:1007F0008CE6E5E2F1E0DE01A359BF4F01900D92D6
:100800008A95E1F70115110521F00130110531F04C
:1008100044C01092C30101E010E03FC0E090C3016A
:100820006E2D70E080E090E00E943F06F0900C0298
:10083000CF2CD12CEDE6F0E0EC0FFD1F24E0F29E72
:10084000E00DF11D112420813181428153810E94EC
:10085000A0051816BCF0CC0CDD1CCC0CDD1CFE0178
:10086000EC0DFD1D81819281A381B4818093BF0134
:100870009093C001A093C101B093C201E394E092B0
:10088000C3010BC08AE18F1530F0F394F0920C0293
:100890001092C30102C002E010E06091BF017091AC
:1008A000C0018091C1019091C2010E94D202C80191
:1008B000C852DF4F0FB6F894DEBF0FBECDBFDF9139
:1008C000CF911F910F91FF90EF90DF90CF90BF904D
:1008D000AF909F908F90089580E4809390008BE07C
:1008E0008093910060E070E0CB010E94D2020895F5
:1008F000109290001092910008951F93CF93DF9370
:10090000EB01642F70E00E948C0521E030E019C0FB
:10091000269FF001279FF00D369FF00D1124EC1754
:10092000FD0768F0D9011197A69FF001A79FF00D70
:10093000B69FF00D1124CE17DF0708F0122F2F5F9E
:100940003F4FE42FF0E0E217F30714F7812F90E018
:10095000DF91CF911F9108958CEF81B983E082B927
:100960008FEF84B915B887B918B88AB91BB8EFEFFB
:10097000F1E0108288EE93E0A0E0B0E08183928302
:10098000A383B48385839683A783B0878BE091E0AC
:1009900092878187E4EFF1E0108284E190E0A0E0AB
:1009A000B0E081839283A383B48385839683A783F6
:1009B000B08722EE30E032872187E8ECF1E0108248
:1009C00044EF51E060E070E04183528363837483BD
:1009D000458356836783708720EA32E03287218718
:1009E000E9EEF1E0108248EC50E060E070E0418315
:1009F000528363837483458356836783708724EDB2
:100A000030E032872187EEEDF1E021E0208342E300
:100A100050E060E070E041835283638374834583D8
:100A200056836783708722E433E032872187E3EDC2
:100A3000F1E0108281839283A383B48385839683BC
:100A4000A783B0878CED91E09287818761E070E0A9
:100A500080E090E00E9472020E94F8010E946C0403
:100A60000E9483020E949200C0E0D0E04AC0FE01D2
:100A7000EE0FFF1FE050FF4F00811181D801159646
:100A80004D915D916D917C91189711968D919D91ED
:100A90000D90BC91A02D481759076A077B07E9F410
:100AA000D8011996ED91FC911A978C9190E00995D7
:100AB000AA2797FDA095BA2FF80185839683A7836F
:100AC000B087FE01EE0FFF1FE050FF4F0190F08155
:100AD000E02D1582168217821086FE01EE0FFF1F91
:100AE000E050FF4F0190F081E02D85819681A78134
:100AF000B0850A96A11DB11D85839683A783B08713
:100B00002196C630D10508F4B2CF8091BB0188236D
:100B1000E1F31092BB01A8CFAA1BBB1B51E107C098
:100B2000AA1FBB1FA617B70710F0A61BB70B881F7D
:100B3000991F5A95A9F780959095BC01CD0108950C
:100B4000D9D008F481E008950CD00FC107D140F04E
:100B5000FED030F021F45F3F19F0F0C0511139C1DF
:100B6000F3C014D198F39923C9F35523B1F3951B1E
:100B7000550BBB27AA2762177307840738F09F5FBE
:100B80005F4F220F331F441FAA1FA9F333D00E2E2D
:100B90003AF0E0E830D091505040E695001CCAF79A
:100BA00029D0FE2F27D0660F771F881FBB1F26175F
:100BB00037074807AB07B0E809F0BB0B802DBF0132
:100BC000FF2793585F4F2AF09E3F510568F0B6C04B
:100BD00000C15F3FECF3983EDCF38695779567950F
:100BE000B795F7959F5FC9F7880F911D96958795E3
:100BF00097F90895E1E0660F771F881FBB1F621702
:100C000073078407BA0720F0621B730B840BBA0BBF
:100C1000EE1F88F7E095089504D06894B111D9C00B
:100C20000895BCD088F09F5790F0B92F9927B751FD
:100C3000A0F0D1F0660F771F881F991F1AF0BA95A0
:100C4000C9F712C0B13081F0C3D0B1E00895C0C07F
:100C5000672F782F8827B85F39F0B93FCCF3869596
:100C600077956795B395D9F73EF4909580957095F3
:100C700061957F4F8F4F9F4F0895E89409C097FB70
:100C80003EF490958095709561957F4F8F4F9F4F63
:100C90009923A9F0F92F96E9BB279395F6958795A7
:100CA00077956795B795F111F8CFFAF4BB0F11F46A
:100CB00060FF1BC06F5F7F4F8F4F9F4F16C0882311
:100CC00011F096E911C0772321F09EE8872F762F47
:100CD00005C0662371F096E8862F70E060E02AF088
:100CE0009A95660F771F881FDAF7880F9695879574
:100CF00097F90895990F0008550FAA0BE0E8FEEF49
:100D000016161706E807F907C0F012161306E407CF
:100D1000F50798F0621B730B840B950B39F40A26C8
:100D200061F0232B242B252B21F408950A2609F4A6
:100D3000A140A6958FEF811D811D089597F99F67AA
:100D400080E870E060E008959FEF80EC0895002453
:100D50000A941616170618060906089500240A9420
:100D600012161306140605060895092E0394000CA6
:100D700011F4882352F0BB0F40F4BF2B11F460FF35
:100D800004C06F5F7F4F8F4F9F4F089557FD90585E
:100D9000440F551F59F05F3F71F04795880F97FB3F
:100DA000991F61F09F3F79F08795089512161306F9
:100DB0001406551FF2CF4695F1DF08C01616170628
:100DC0001806991FF1CF869571056105089408955D
:100DD000E894BB2766277727CB0197F908958ADF28
:100DE00008F48FEF08950BD0C0CFB1DF28F0B6DF45
:100DF00018F0952309F0A2CFA7CF1124EACFC6DFC0
:100E0000A0F3959FD1F3950F50E0551F629FF0011D
:100E1000729FBB27F00DB11D639FAA27F00DB11D76
:100E2000AA1F649F6627B00DA11D661F829F2227FF
:100E3000B00DA11D621F739FB00DA11D621F839F86
:100E4000A00D611D221F749F3327A00D611D231F5C
:100E5000849F600D211D822F762F6A2F11249F57AA
:100E600050408AF0E1F088234AF0EE0FFF1FBB1FCD
:100E7000661F771F881F91505040A9F79E3F51056C
:100E800070F05CCFA6CF5F3FECF3983EDCF3869525
:100E900077956795B795F795E7959F5FC1F7FE2B17
:100EA000880F911D9695879597F90895F894FFCF2F
:100EB000FF01F401E901DE01D301C80104010204CC
:100EC0000810204080626468707FBFDFEFF7FBFD91
:100ED000FE010000000000484300001B4300001B0F
:100EE0004300001B4300001B4300001B4300001B8A
:100EF0004300001B4300001B4300001B4300001B7A
:100F00004300001B4300001B4300001B4300001B69
:100F10004300001B4300001B4300001B4300001B59
:100F20004300001B4300001B4300001B4300001B49
:100F30004300001B4300001B4300001B4300001B39
:100F4000431902010001020202010101020303022E
:100F5000010001020202010102010047472120486D
:060F600053203D200000BB
:00000001FF
