:100000000C9446000C9465000C9465000C946500FB
:100010000C9465000C9465000C9465000C946500CC
:100020000C9465000C9465000C9465000C946500BC
:100030000C9465000C945D010C9465000C946500B3
:100040000C9465000C9465000C9465000C9465009C
:100050000C9465000C9465000C9465000C9465008C
:100060000C9465000C9465000C9465000C9465007C
:100070000C9465000C9465000C9465000C9465006C
:100080000C9465000C9465000C94650011241FBE4F
:10009000CFEFD0E4DEBFCDBF11E0A0E0B1E0EAE5F4
:1000A000F8E000E00BBF02C007900D92A032B1074C
:1000B000D9F711E0A0E2B1E001C01D92A833B10769
:1000C000E1F70E9444020C942B040C94000040E0E1
:1000D00050E00CC000002F5F3F4F02C020E030E036
:1000E000273063E03607B4F34F5F5F4F4817590777
:1000F000ACF308955E9888B95F9A00005F9882E03B
:1001000090E00E946700089581E00E947A000895BF
:10011000813120F481580E947A00089581550E940F
:100120007A00089584E690E00E94670088E30E94C8
:100130007A0086E00E947A008FE00E947A0081E0D7
:100140000E947A008AE090E00E94670008955E9A1B
:1001500088B95F9A00005F9881E090E00E94670094
:100160000895EF92FF920F931F93CF93DF93182F71
:10017000EB010E9484000EC001E0010F812F0E945C
:1001800088007E018FEFE81AF80A88810E94A70094
:10019000102FE70188818111EFCFDF91CF911F915F
:1001A0000F91FF90EF900895EF92FF920F931F939E
:1001B000CF93DF93CDB7DEB76B970FB6F894DEBF62
:1001C0000FBECDBF7C018BE1E4E0F1E0DE011196D2
:1001D00001900D928A95E1F7E114F104E1F40E9497
:1001E000840000E010E00DC090913301F801E90FA8
:1001F000F11DEC0FFD1F818190E00E94A7000F5FB1
:100200001F4F0031110584F3809133018B3018F4B6
:100210008F5F80933301E114F10439F081E0E81637
:10022000F10431F4E12CF12C03C0EE24E394F12C21
:10023000C7016B960FB6F894DEBF0FBECDBFDF913E
:10024000CF911F910F91FF90EF90089521E030E042
:1002500002C0220F331F6A95E2F7282381E009F4D8
:1002600080E008958BE0809381008DE790E090938B
:1002700089008093880082E080936F00109285004F
:10028000109284008091000190910101A0910201DF
:10029000B09103018093230190932401A093250141
:1002A000B09326018FB780688FBF089510928100A8
:1002B000089581E08093270108951F920F920FB651
:1002C0000F9211240BB60F922F933F934F935F938E
:1002D0006F937F938F939F93AF93BF93EF93FF930E
:1002E0008091230190912401A0912501B0912601D4
:1002F0000197A109B1098093230190932401A09350
:100300002501B0932601892B8A2B8B2B91F40E9417
:1003100059018091000190910101A0910201B091D9
:1003200003018093230190932401A0932501B093AE
:100330002601FF91EF91BF91AF919F918F917F9196
:100340006F915F914F913F912F910F900BBE0F9046
:100350000FBE0F901F9018956093000170930101DC
:100360008093020190930301609323017093240111
:1003700080932501909326010895EAE7F0E08081BB
:10038000806E80830895CF92DF92EF92FF926B018F
:100390007C0120913401309135014091360150911A
:1003A00037010E94B202882309F458C020E030E0EF
:1003B000A901C701B6010E94B202811106C0E1E99C
:1003C000F0E080818870808305C0E1E9F0E0808101
:1003D0008360808328E539E344E75FE3C701B60122
:1003E0000E94B20288233CF48FEF9FEF9093990014
:1003F0008093980027C020E034E244EF56E4C70120
:10040000B6010E94C40318162CF4109299001092A1
:10041000980018C020E030E040E053E4C701B60186
:100420000E94C8039B01AC0160E074E284EF9AE48F
:100430000E94B6020E941E036150710970939900D8
:10044000609398001092950010929400C09234012D
:10045000D0923501E0923601F0923701FF90EF9093
:10046000DF90CF90089580E4809390008BE080939C
:10047000910060E070E0CB010E94C30108951092EA
:100480009000109291000895CF93DF9300D0CDB7E4
:10049000DEB711B88FEF82B984B915B887B918B82B
:1004A0008AB91BB8E8E2F1E0FA83E983108288EEAA
:1004B00093E0A0E0B0E081839283A383B48385833B
:1004C0009683A783B08784ED90E0928781876AE066
:1004D00070E080E090E00E94AC010E9432010E9436
:1004E000920000E010E034C0F801EE0FFF1FEC0FA7
:1004F000FD1FE180F280D70115964D915D916D91C0
:100500007C91189711968D919D910D90BC91A02D85
:10051000481759076A077B0769F4D7011996ED91C7
:10052000FC911A978C9190E00995F701158216823B
:1005300017821086F70185819681A781B0850A967A
:10054000A11DB11D85839683A783B0870F5F1F4FC1
:100550000115110549F2809127018823E1F31092DA
:100560002701BFCF9CD008F481E008950CD0D2C001
:10057000CAD040F0C1D030F021F45F3F19F0B3C0D1
:100580005111FCC0B6C0D7D098F39923C9F35523B5
:10059000B1F3951B550BBB27AA2762177307840776
:1005A00038F09F5F5F4F220F331F441FAA1FA9F32C
:1005B00033D00E2E3AF0E0E830D091505040E6951E
:1005C000001CCAF729D0FE2F27D0660F771F881F7F
:1005D000BB1F261737074807AB07B0E809F0BB0B6E
:1005E000802DBF01FF2793585F4F2AF09E3F510592
:1005F00068F079C0C3C05F3FECF3983EDCF38695AA
:1006000077956795B795F7959F5FC9F7880F911D07
:100610009695879597F90895E1E0660F771F881FF3
:10062000BB1F621773078407BA0720F0621B730BA6
:10063000840BBA0BEE1F88F7E095089504D06894F8
:10064000B1119CC008957FD088F09F5790F0B92FCA
:100650009927B751A0F0D1F0660F771F881F991F17
:100660001AF0BA95C9F712C0B13081F086D0B1E066
:10067000089583C0672F782F8827B85F39F0B93F76
:10068000CCF3869577956795B395D9F73EF4909519
:100690008095709561957F4F8F4F9F4F0895990F6B
:1006A0000008550FAA0BE0E8FEEF16161706E8073C
:1006B000F907C0F012161306E407F50798F0621B5D
:1006C000730B840B950B39F40A2661F0232B242B32
:1006D000252B21F408950A2609F4A140A6958FEF51
:1006E000811D811D089597F99F6780E870E060E0A3
:1006F00008959FEF80EC089500240A9416161706BB
:1007000018060906089500240A9412161306140602
:1007100005060895092E0394000C11F4882352F065
:10072000BB0F40F4BF2B11F460FF04C06F5F7F4F1D
:100730008F4F9F4F089557FD9058440F551F59F004
:100740005F3F71F04795880F97FB991F61F09F3FBE
:1007500079F087950895121613061406551FF2CFE7
:100760004695F1DF08C0161617061806991FF1CF37
:1007700086957105610508940895E894BB2766275E
:100780007727CB0197F908958ADF08F48FEF089552
:100790000BD0C0CFB1DF28F0B6DF18F0952309F0F9
:1007A000A2CFA7CF1124EACFC6DFA0F3959FD1F344
:1007B000950F50E0551F629FF001729FBB27F00D0F
:1007C000B11D639FAA27F00DB11DAA1F649F662764
:1007D000B00DA11D661F829F2227B00DA11D621FB3
:1007E000739FB00DA11D621F839FA00D611D221F6D
:1007F000749F3327A00D611D231F849F600D211D51
:10080000822F762F6A2F11249F5750408AF0E1F0F3
:1008100088234AF0EE0FFF1FBB1F661F771F881F3C
:1008200091505040A9F79E3F510570F05CCFA6CF84
:100830005F3FECF3983EDCF3869577956795B79527
:10084000F795E7959F5FC1F7FE2B880F911D969551
:0A085000879597F90895F894FFCFFB
:10085A00010000004C6567656E642E2E2E207761BC
:10086A00697420666F7220697420444152592100CC
:00000001FF
